S00B000050444D2E7372656338
S31502000000000400220B250002E92300021925000242
S3150200001019250002192500021925000219250002D8
S315020000200000000000000000000000001925000288
S3150200003019250002000000001925000219250002F8
S31102000040951800021D190002E1190002C9
S3150200004C1000000000000000017A5200017C0E0133
S30D0200005C1B0C0D000000000060
S31502000070F0B503AF2DE9000F83B000EB400040F26C
S315020000803043C2F20023154603EBC0088946D8F86E
S315020000902C0002281AD001280CD048B9444654F83C
S315020000A0246F6068F143B04275D90844A84279D2F8
S315020000B000269BE0C2465AF8244FDAF80410A14201
S315020000C03FD9E0430144D8F820003FE058F824AF76
S315020000D008F10400A8F1040B00260290A8F108001A
S315020000E0019024E0DBF8001010440844A1EB0A0159
S315020000F0884250EA31804946A84250EA358401983E
S3150200010022460068504402F093FB04EB0A00DBF837
S315020001100010411AA5EB040550EA118A2644A144AF
S31502000120002DBFF35F8F4046C8F800A05ED002984C
S315020001306FEA0A0200685045D4D91044DBF8001071
S31502000140D4E7E243D8F8200011440144A94251EA17
S315020001503586051B58F81C0F2044AE4209D2494683
S31502000160324602F065FBBFF35F8F3019CAF8000012
S315020001703CE049462A46444602F05AFBA6EB0508ED
S31502000180206809EB0501424602F052FBBFF35F8F7E
S31502000190CAF800802AE0D8F8202008441044A84271
S315020001A0FFF486AF58F81C0FD8F804103044A1EBC0
S315020001B0060A554508D249462A4602F039FBBFF3DC
S315020001C05F8F7019206010E049465246464602F09B
S315020001D02FFBA5EB0A08306809EB0A01424602F03A
S315020001E027FBBFF35F8FC4F800802E46304603B06C
S315020001F0BDE8000FF0BDF0B503AF4DF8048D40F237
S3150200020030450C46C2F200252B78532B38D0804657
S31502000210A8212846164602F007FB032028616861DA
S3150200022040F2D84042F61571C2F20020C0F2002117
S31502000230A961E8614FF4006028620020A862686242
S31502000240E862296640F6D8414FF0100EC2F200214C
S315020002506966C5F868E02867E8666867BFF35F8F76
S3150200026042F6EE21C0F2002180F00F0201308A5CD4
S3150200027005F8012B0FF009C032464046BFF35F8FE7
S31502000280EFF311854FF0200181F311882146FFF724
S31502000290EFFE85F311885DF8048BF0BDD0B502AF91
S315020002A040F23044A821C2F20024204602F0BCFAF1
S315020002B003202061606140F2D84042F61571C2F215
S315020002C00020C0F20021A161E0614FF400602062CB
S315020002D00020A0626062E062216640F6D8414FF0DB
S315020002E0100EC2F200216166C4F868E02067E0667B
S315020002F06067BFF35F8F42F6EE21C0F2002180F005
S315020003000F0201308A5C04F8012B0FF009C0BFF31B
S315020003105F8FD0BDF0B503AF2DE9000F9BB09046BD
S315020003200C4606A94FF0000B04901A900020169175
S3150200033040211791CDE918BB0EE0011DC8F8001047
S315020003400168CDE9003916A8534600F027FA199834
S31502000350B0F1FF3F40F31E8214F8011B25291CD081
S31502000360002900F00982DDE91720431C934207D8D1
S31502000370169A115418931998179A0130199018461B
S315020003809042E4D116991A98FFF735FF18998842D8
S3150200039040F0EF81CDF860B0D9E74FF0000921783F
S315020003A0A1F123030D2B13D80222DFE803F00B1170
S315020003B01111111111110D110F11110749EA02093B
S315020003C00134ECE70822F9E70422F7E70122F5E710
S315020003D0A1F13A02002312F10A0F0ED30A4614F8CB
S315020003E0011F03EB8303A1F13A0602EB430216F166
S315020003F00B0FA2F130030A46F1D82E290ED122465E
S3150200040012F8015F2A2D0DD1D8F8001002340A1D08
S31502000410C8F80020D1F800A001211EE000214FF00B
S31502000420000A1AE0A5F13A0616F10A0F03D20021D4
S315020004304FF0000A10E04FF0000A12F8011F0AEB13
S315020004408A06A1F13A0405EB460614F10B0FA6F152
S31502000450300A0D46F1D80121144614F8012B02F098
S31502000460FB06682EF9D0A2F15806202E26D8DFE820
S3150200047006F01211111111111111111111163C115F
S31502000480111111111111111111117111117E113860
S31502000490111112005BE7D8F8000010224DE7DDE9E2
S315020004A01720411CD8F80030914203F10406C8F81F
S315020004B000603FF665AF169A1B680AE0252A7FF4AC
S315020004C046AFDDE91720411C91423FF659AF169A15
S315020004D02523135418911998179A01301990084632
S315020004E04EE7D8F800000A2227E7D8F800104CF6A3
S315020004F0CD4C0A1DC8F80020D1F800E0CCF6CC4C51
S31502000500BEF1000FCEF10001724648BF0A460391C2
S315020005100A2A4FF0010107DBA2FB0C56632A01F1FE
S3150200052001014FEAD602F7D8514551EA8A8C0026D4
S31502000530002BCDF814E056D0BEF1000F5FEA5F91B2
S3150200054009F0040241EA9201A3EB010B5FEA897505
S315020005504ED475E0D8F800001022011DC8F800102C
S31502000560016808200823CDE9000B16A8EDE6D8F8A5
S315020005700020131DC8F80030126842F61553002AEF
S31502000580C0F2002352EA13855FEA018908E019984E
S31502000590CDF860B0B0F1FF3FAAF1010A7FF7D7AEFE
S315020005A015F8011BBAF1000F5FEA198200293FF420
S315020005B0CEAE002A7FF4CBAEDDE917235E1C96424F
S315020005C007D81698C15433461998179A01301896C7
S315020005D019909342DED116991A98FFF70CFE1899D4
S315020005E08842D4D0C5E04FF0000B5FEA897527D563
S315020005F0BAF1000F24D1002800F1B8800599B1F1B3
S31502000600FF3F4FDD5FEA497174D5DDE917214B1CC7
S31502000610934208D816982B22425419461998179ACB
S3150200062001301893199091425BD116991A98029546
S315020006306546FFF7E0FD1899884205994CD098E087
S315020006405FEAC971D7D1BBF1000FD4D0029504E09D
S3150200065000260028AB4600F18980ABF101055D4515
S3150200066038BFDC4540D2DDE917214B1C934208D83E
S3150200067016982022425419461998179A013018934F
S3150200068019904FF0000B9142E2D116991A986646DC
S31502000690FFF7B1FD189988426BD11998B446CDF887
S315020006A060B0D5E7DDE917214B1C934208D81698AE
S315020006B02D22425419461998179A01301893199007
S315020006C0914213D116991A9802956546FFF793FD42
S315020006D01899884203994CD11998AC46029D1896EE
S315020006E00591002806D541E0029D84E7039905910C
S315020006F000283BD4002D0AD40A2216A8059953468F
S31502000700CDE900B900F04AF84FF0000B1FE609F0F8
S31502000710010151EA0A01EFD1BBF1000FECD0ABF1B6
S3150200072001055D4538BFDC45E6D2DDE917214B1CE4
S31502000730934208D816983022425419461998179AA5
S315020007400130189319904FF0000B91420BD1169974
S315020007501A986646FFF74FFD1899884209D11998EB
S31502000760B446CDF860B00028AB46D8D54FF0000BA2
S31502000770EDE54FF0FF300DE040B1189A42B106A9FF
S315020007800498FFF738FDDDE9181002E0002001E0C9
S31502000790002108441BB0BDE8000FF0BDF0B503AF61
S315020007A02DE9000F81B01546884691421E46044641
S315020007B0D7F808A04FF0010005D34146B1FBF5F189
S315020007C00130A942FAD2B04250EA8689BAF1000F44
S315020007D0F96835D011F0010032D188074FF02001B7
S315020007E04FF0200048BF3020002E50EA018B03E074
S315020007F0E068B0F1FF3F23DDBAF1000F20D0D1450A
S315020008001ED2D4E90120411C914208D8226802F87E
S3150200081000B0A160E06862680130E060084690427C
S31502000820AAF1010AE4D121682069FFF7E4FCA16874
S31502000830884202D10020A060DAE74FF0FF30E06084
S31502000840E06800283ED44FF0010B02E0013E0BFBAC
S3150200085005FB022EFAD2B8FBFBF1A942F7D2A26837
S315020008606168531CB8FBFBF68B420CD843F20311AA
S315020008702068C0F20021895D81541A46E0686168E9
S315020008800130A360E0608A4209D121682069FFF73E
S31502000890B2FCA26890420CD10022E068A260002855
S315020008A00AD4BBFBF5F106FB1B88AB458B46D7D2B8
S315020008B002E04FF0FF30E060F968C90718BFBAF1ED
S315020008C0000F03D101B0BDE8000FF0BD2025AAF14B
S315020008D00106564538BFD145F4D26168531C8B4296
S315020008E007D8206885541A46E06861680130A3601B
S315020008F0E0608A4209D121682069FFF77CFCA16881
S31502000900884207D10022E068A260B0F1FF3FB246FA
S31502000910DDDCD7E74FF0FF30E060D3E782B080B589
S315020009206F4682B0C7E9022307F10802019201AAC3
S31502000930FFF7F0FC02B0BDE8804002B0704700F05D
S3150200094069BB022818BF704742F6FC4043F2946125
S31502000950C2F20420C0F2002101F080B8F0B503AF64
S315020009602DE9000F81B042F6D6610020C0F20021C7
S31502000970FFF7D4FF42F6D8643C25C0F200240020DB
S315020009802146FFF7CBFF013DF9D142F6D66400209E
S31502000990C0F200242146FFF7C1FF42F6547100203F
S315020009A0C0F20021FFF7BAFF40F6E84542F676713B
S315020009B0C2F20025C0F2002100202A68FFF7AEFF2E
S315020009C028684FF47A71484344F6D352C1F2620260
S315020009D048F63816A0FB0223C0F241069A0AA2FB89
S315020009E006264DF68362C4F21B32A0FB020206FB08
S315020009F001F042F6EE41920DC0F20021C0EB9323C4
S31502000A000020FFF78BFF43F279010020C0F200219C
S31502000A10FFF784FF00202146FFF780FF42F6D864E5
S31502000A203C25C0F2002400202146FFF777FF013D56
S31502000A30F9D142F6D6610020C0F20021FFF76EFF1F
S31502000A4040F6E840C2F200200068002855D040F681
S31502000A50EC4A42F6FB7500244FF064084FF0010998
S31502000A60C2F2002A4FF47A5BC0F200250CE040F68F
S31502000A70E84008F16408C2F2002009F101090AF10E
S31502000A80040A0068844238D244F6D350C1F26200A6
S31502000A90A9FB0006200709D060070FD142F6517163
S31502000AA00020C0F20021FFF739FF07E042F61C5191
S31502000AB00020C0F200212246FFF730FFB00ADAF822
S31502000AC0002000FB0BF02946461E0020FFF726FFFA
S31502000AD0A64204F10104CAD140F6E8402246C2F217
S31502000AE0002003680020B8FBF3F1009142F69471EE
S31502000AF0C0F20021FFF712FFB9E742F65441002087
S31502000B00C0F20021FFF70AFF42F6D6610020C0F2CA
S31502000B100021FFF703FF42F6D8643C25C0F2002409
S31502000B2000202146FFF7FAFE013DF9D142F6D661D1
S31502000B300020C0F2002101B0BDE8000FBDE8F04080
S31502000B40FFF7ECBEF0B503AF2DE9000F81B02DED36
S31502000B50048B86B00E4669B18346042E4FF0000917
S31502000B6012D24FF0FF3500234FF000080024002078
S31502000B7049466BE000204FF0FF35014600244FF056
S31502000B8000084FF0000978E026F003000496029070
S31502000B900438012180EF500001EB900E4FF0333CF8
S31502000BA087FF5F2E4FF0013A4FF0000880EF514069
S31502000BB00024002049464FF00509CDF80CB0BBECE5
S31502000BC0047F002627FE4F0FFDEE103AADFF56803A
S31502000BD003F00102C3F30015524208EF548162F397
S31502000BE000066A4262F34106C3F300225242C3F38D
S31502000BF0003362F382065A4262F3C30609EA5602D8
S31502000C00F9FE288FB21A0CEA920322F0CC321A4469
S31502000C1026FF522602EB121289FE260F22F0F0322E
S31502000C2002FB0AF226FF400604EB12640FF039C8F3
S31502000C304FF0FF354FF00009EAFE825F049E029BE9
S31502000C40DDF80CB0B342EAFE009F16D0A6EB030E07
S31502000C500BEB830252F8043BAB4253EA35854B4514
S31502000C6053EA8989C01841F10001002B54EA149411
S31502000C70C3F3C04398440FF013C80023324601F071
S31502000C80E9FD42F6D9318246C0F200210020FFF783
S31502000C9045FE43F2A5010020C0F200213246FFF7CD
S31502000CA03DFE42F639310020C0F200212A462B468B
S31502000CB0FFF734FE42F6F7310020C0F200214A4621
S31502000CC04B46FFF72BFE42F670310020C0F20021A0
S31502000CD052465346FFF722FE00EE104A9FED218A46
S31502000CE0B8EE400A42F6275101EE106AC0F2002120
S31502000CF020EE080A0020B8EE419A224680EE090A42
S31502000D00B7EEC00A8DED000BFFF708FE00EE108A63
S31502000D1042F6DA61B8EE400AC0F2002100204246ED
S31502000D2020EE080A80EE090AB7EEC00A8DED000B26
S31502000D30FFF7F4FD43F2D601A9EB0502C0F200214A
S31502000D400020FFF7EBFD42F653310020C0F20021EE
S31502000D5006B0BDEC048B01B0BDE8000FBDE8F04063
S31502000D60FFF7DCBD0000C842F0B503AF2DE900076E
S31502000D704CF6CD4349F69916CCF6CC43C1F69916F4
S31502000D8053434FEA7303B34202D9BDE80007F0BDED
S31502000D90894642F6C1710546C0F200210020FFF7DE
S31502000DA0BDFDB9F1200F4C4628BF2024B9F1000F32
S31502000DB026D042F6114842F6FB7A0026C0F20028F7
S31502000DC0C0F2002A09E055F8042B00205146FFF72D
S31502000DD0A5FD013C06F1010607D07007F3D10020FC
S31502000DE041463246FFF79AFDEDE7B9F1200F07D9E2
S31502000DF042F6FF210020C0F200214A46FFF78EFD8F
S31502000E0043F202010020C0F20021FFF787FD40F6FF
S31502000E10EC40C2F20420016849440160BDE80007C3
S31502000E20F0BDD4D4F0B503AF4DF8048D82B002798B
S31502000E30012A52D0032A0FD0022A40F0DB8040F664
S31502000E40F04342F67641C2F20423C0F2002118684A
S31502000E50421C00201A60D2E042F6F841C388C2F270
S31502000E6004210446002000260A6801320A6042F67E
S31502000E709F51C0F20021FFF751FDE088000540F1C5
S31502000E80B58042F6F9510020C0F20021FFF746FD77
S31502000E9040F6E844C2F200242568B6EB154F40F04E
S31502000EA0A5804FF6FF70042185EA000640F6EC4065
S31502000EB0B6F5FF7FC2F2002088BF40F2FF1601EBB3
S31502000EC0860240F6F84100EB8500C2F2042101F0E9
S31502000ED0AFFCA8190130206088E040F6F445C2F262
S31502000EE004252868002800F10100286006D142F690
S31502000EF01E710020C0F20021FFF710FD40F6E848FF
S31502000F000020C2F20028D8F80060B0EB164F1BD1C1
S31502000F104FF6FF70042186EA000440F6EC40B4F571
S31502000F20FF7FC2F2002088BF40F2FF1401EB840269
S31502000F3040F6F84100EB8600C2F2042101F078FC8B
S31502000F4030190130C8F8000040F6F8402A68C2F2AB
S31502000F5004204FF40071FFF707FF45F629402A687F
S31502000F60CCF28F2045F628415043C0F28F214FEA3A
S31502000F70B000884229D842F6FA610020C0F2002168
S31502000F80FFF7CCFCD8F8002000EE102AB8EE400A93
S31502000F909FED1E1A42F67551002020EE010A9FEDC2
S31502000FA01C1AC0F200214FF4803320EE010AB7EE7C
S31502000FB0C00A8DED000BFFF7B1FC40F6F8404FF486
S31502000FC00071C2F20420FFF7BDFDD8F80000B0F5AB
S31502000FD07E4F0BD342F647610020C0F2002102B0D9
S31502000FE05DF8048BBDE8F040FFF798BC02B05DF8EF
S31502000FF0048BF0BD43F2EA010020C0F2002102B0E8
S315020010005DF8048BBDE8F040FFF788BC0000C842DB
S3150200101000008037B0B502AF82B0FFF73FF942F663
S3150200102079610020C0F20021FFF778FC42F68E417A
S3150200103046F24D23C0F2002100204FF48032C4F262
S3150200104010034FF06045CDE90053FFF767FC42F607
S31502001050045043F28811C2F20420C0F2002100F0CB
S31502001060E3F828B142F6E4710246C0F2002131E00B
S3150200107042F626310020C0F20021FFF74FFC42F66D
S3150200108043510020C0F200213C22FFF747FC4EF6F6
S315020010906020012101F065F942F604544DF6F00193
S315020010A0C2F20424CFF6FF7142F21072204600F01B
S315020010B028FA40F6F8414FF40052C2F204214FF4E6
S315020010C00073204600F05EF950B142F63C410246FA
S315020010D0C0F20021002002B0BDE8B040FFF71EBCFE
S315020010E042F6AB6144F24024C0F200210020C0F275
S315020010F00F04FFF713FC42F6C7510020C0F200218D
S31502001100FFF70CFC0A20214601F02BF942F6883142
S315020011100020C0F20021FFF701FC43F21F0100206C
S31502001120C0F20021FFF7FAFB42F60455C2F204258B
S31502001130284600F09FF9284600F090FA40F6E84566
S31502001140C2F20025286868B143F247010020C0F2C6
S315020011500021FFF7E3FB40F6EC402968C2F20020CB
S31502001160FFF7F0FC42F627610020C0F20021FFF7EC
S31502001170D5FB42F6C3410020C0F20021FFF7CEFBA9
S315020011800220214601F0EDF8FFF7E8FB43F2B80131
S315020011900020C0F20021FFF7C1FB40F6F44442F6FC
S315020011A05F51C2F20424C0F2002100202268FFF738
S315020011B0B5FB42F6BB312A68C0F200210020FFF7D8
S315020011C0ADFB42F6F84043F26001C2F20420C0F2DF
S315020011D0002102680020FFF7A1FB95ED000A9FEDB2
S315020011E00E1AB8EE400A2068400242F61D4120EE71
S315020011F0010AC0F2002101EE100A0020B8EE411ADF
S3150200120080EE010AB7EEC00A53EC102B02B0BDE81D
S31502001210B040FFF783BB00BF0000C84280B56F46EF
S31502001220FFF78DFB002080BD024600284FF001002B
S3150200123018BF002900D17047F0B503AF2DE9000FA2
S3150200124081B04D68022D01D8086838B140F27A5053
S3150200125001B0BDE8000FBDE8F040704744F24D49C9
S315020012601068C0F25009484501D10E20F0E701206E
S315020012708E69EFF3108B80F3108843F208009246D2
S31502001280C4F2200046F200180C4601210268C4F29C
S31502001290250822F08072026000681E2001F061F8C3
S315020012A08BF31088A446317E227A337D747D090140
S315020012B04FF00B0E41EA0271B27D41EA0361F37D02
S315020012C041EA04419CF8094041EA023208EB052151
S315020012D042EA032222430A62727EB37E34781B04F8
S315020012E043EA026206F1240322444A62B28B8A620C
S315020012F0F28BCA62328C0A63728C4A6301F138023B
S3150200130033F8024B42F8044B0FF007C0728F4FF0CE
S31502001310140E4A6601F1680206F13C03544633F89C
S31502001320020B42F8040B0FF007C096F864002B027A
S31502001330C1F8C000B6F86600B6F8682042EA004076
S31502001340C1F8C400F06EC1F8C800306F022204363C
S31502001350C1F8CC000120C0F6070248F803008A61F2
S315020013604DCE1043184330430861C4E901C1DCF88D
S3150200137010002062DCF81400A06200206062C4F84B
S31502001380009065E700284FF0010C18BF002901D133
S3150200139060467047F0B503AF4DF804BD44F24D45C3
S315020013A00668C0F25005AE420DD1002A4FF0010C7C
S315020013B018BF002B09D04568AE6936B18C070AD032
S315020013C040F2EB3C01E04FF0070C5DF804BBBDE8D0
S315020013D0F0406046704796F864604FF0FF3404FAB6
S315020013E006F602F0030423EA0606264306D194080B
S315020013F0B4FBF3F65E43C6EB920212B14FF0170C42
S31502001400E3E700F1140C86680022C0E903148CE8B5
S315020014100E000121C6F8E0101E210139D6F8E82097
S31502001420FBD1044600F0B4F984460028CDD195F9E3
S315020014302100224600285CBFF0685FEAC0300DD565
S31502001440F06840F00400F06095F91F00002802D40D
S31502001450297F00F0E8F94FF0000CB6E7F068224663
S3150200146040F48030F06095F92100A97F00F0DBF9A5
S315020014702246E5E748B344F24D420168C0F2500203
S31502001480914224D1B0B502AFD0E901450146D5F863
S31502001490E00000284FF0000008BFB0BDEA6822F065
S315020014A00402EA60C5F8E0004868C06818B18168BD
S315020014B00068096A884794F9210000285CBF2869F8
S315020014C05FEA807005D50020B0BD01207047072075
S315020014D07047E8684EF2801320F48030E86094F991
S315020014E02100CEF20003012200F01F01400902FA98
S315020014F001F143F82010BFF34F8FBFF36F8F002027
S31502001500B0BD002864D0F0B503AF2DE9000B44F25C
S315020015104D440368C0F25004A3425BD1D0E901C333
S315020015209CF92140002C5CBFDC685FEAC43455D5C7
S315020015309E6946F002069E61C3F8B810C3F8BC2045
S31502001540196941F0020119619CF9201000293BD466
S31502001550D9684EF6185541F00201D9609CF920105F
S315020015609CF81D30CEF2000501F00F021B01161F7A
S315020015704EF20012CEF20002002901EB020404F53B
S31502001580407448BF7419237042F68853C2F204238A
S31502001590012643F821004CF20030C4F2000050F854
S315020015A0213023F4803340F8213050F821004809D5
S315020015B001F01F01BFF35F8F02EB800306FA01F110
S315020015C0C3F8801142F820100020BDE8000BF0BDE0
S315020015D0012070470720BDE8000BF0BDDC684EF223
S315020015E0001944F48034DC609CF921E0CEF2000953
S315020015F09CF81E504EF618580EF00F04CEF2000854
S31502001600261F0EEB090404F54074BEF1000F48BF15
S3150200161006EB08042D01257042F688540EF01F06CB
S31502001620C2F2042444F82E004CF20034C4F2000440
S3150200163054F82E5025F4803544F82E5054F82E4096
S315020016404FEA5E140125BFF35F8F09EB840805FAA2
S3150200165006F6C8F8806149F8246069E7002800F0B8
S31502001660808044F24D420168C0F2500291427AD122
S31502001670F0B503AF4DF8048DD0E901564EF280184D
S31502001680CEF20008D6F8E010C1B1F16821F00401EB
S31502001690F1600021C6F8E0104168C96831B18A6874
S315020016A0096804460846126A9047204695F92110B1
S315020016B000295CBF31695FEA817156D501217160EB
S315020016C040F2E7317269D20703D00029A1F1010184
S315020016D0F8D14FF6FD72F168CFF6FE721140022282
S315020016E0F16000213161C0F60702B261016095F92D
S315020016F01F0000280DD4C0B20122C0F3421100F02F
S315020017001F0002FA00F048F82100BFF34F8FBFF323
S315020017106F8F95F9200000280DD4C0B20122C0F3C4
S31502001720421100F01F0002FA00F048F82100BFF350
S315020017304F8FBFF36F8F95F9210000280DD4C0B2E9
S315020017400122C0F3421100F01F0002FA00F048F82D
S315020017502100BFF34F8FBFF36F8F00205DF8048B1C
S31502001760F0BD0120704707207047F168012321F47C
S315020017708031F16095F921104A0901F01F0103FA3F
S3150200178001F148F82210BFF34F8FBFF36F8F95E731
S31502001790F0B503AF4DF804BD4468E568A5B36968C2
S315020017A000F1080EA2694FF6FF760968C0F6DF76E9
S315020017B09EE80850E8334B60C3688B600B68334081
S315020017C0012603F120430B6092F8643006FA03F314
S315020017D0CB81838B92F8642023FA02F28A81C16953
S315020017E00CEB8E02436903EB81014161914201D305
S315020017F0C1684161A868E1680268D1E900019047C1
S3150200180030B15DF804BBF0BD00205DF804BBF0BD4D
S31502001810A868E168C26808689047002808BF0020E7
S315020018205DF804BBF0BDD0B502AF4EF2001C4EF619
S31502001830145ECEF2000C090100EB0C0400F00F035B
S3150200184004F54074CEF2000E002848BF03EB0E04E6
S31502001850217042F68851C2F20421012341F8202068
S315020018604CF20031C4F2000151F8202022F48032F9
S3150200187041F8202051F82010410900F01F00BFF363
S315020018805F8F0CEB810203FA00F0C2F880014CF87C
S315020018902100D0BDB0B502AF82B0EFF303804FF0A6
S315020018A0704101EB006042F688528115C2F20422B1
S315020018B005165458A1680A6922F002020A61A16853
S315020018C002228A61216AB1B1606A20B1D0E90012AE
S315020018D0CDE9001200E0684602210171A16A0160A9
S315020018E00021C180216A8847606A00281CBFDDE9A1
S315020018F00012C0E900124CF20030C4F2000050F8A7
S31502001900251021F4803140F8251050F82500A068F2
S31502001910016941F00201016102B0B0BDF0B503AF49
S315020019204DF8048D82B0EFF303804FF0704101EB66
S31502001930006042F688514CF200328015C2F2042150
S31502001940C4F200020C58815821F48031815080582B
S31502001950E268F2B1A168D4E90430D1F8EC1069B1B9
S3150200196002EB83030022A668D6F8E86040F8046B0F
S31502001970984205D201329142F5D103E0002101E0FD
S31502001980E068511CD4E906321944C4E905019142C2
S3150200199003D202B05DF8048BF0BDE84601260025AD
S315020019A014E0D0E90012CDE900120671A16A0160C5
S315020019B0C580216A8847606A00281CBFDDE90012DB
S315020019C0C0E90012D4E906129142E2D3206A891ACA
S315020019D00028A161F8D0606A0028E2D14046E4E717
S315020019E0B0B502AF82B0EFF303804FF0704101EB66
S315020019F0006042F688528115C2F2042200230416C0
S31502001A005558C0F60703AA685169194091612A6AB6
S31502001A10B2B1686A090C20B1D0E90023CDE90023EE
S31502001A2000E0684603220271AA6A0260C180296A3E
S31502001A308847686A00281CBFDDE90012C0E9001267
S31502001A404CF20030C4F2000050F8241021F4803128
S31502001A5040F8241050F8240002B0B0BD80B56F469D
S31502001A6045F25422C5F24F020260084600F002F81F
S31502001A70002080BDF0B503AF4DF804BD044600F06A
S31502001A8060F842F6845CEFF31081C2F2042C012066
S31502001A9080F31088DCF8000038B940F614500022B2
S31502001AA0C4F24000027040220270DCF800000130ED
S31502001AB0CCF8000081F31088208828B340F6000E87
S31502001AC00021C4F2400E07E00EEB8010013140F80F
S31502001AD022302088814217D2606800EBC10250F89A
S31502001AE031309288D8034FEA1220D2B2ECD50EEBEF
S31502001AF0801555F8226026F4803645F8226023F4D4
S31502001B00803645F82260DFE70120EFF3108180F38B
S31502001B101088DCF8000020B1DCF800000138CCF8AF
S31502001B200000DCF8000038B940F614500022C4F276
S31502001B30400002708022027081F310885DF804BBB7
S31502001B40F0BDF0B503AF2DE9000F81B00446008861
S31502001B50002861D04EF64C4B0025C4F2010B03E07F
S31502001B6020880135854257D243F2A66942F24008DF
S31502001B700026C0F20029C4F220080AE088F8000014
S31502001B80C820012100F0EDFB013608F10208032E00
S31502001B90E6D0606839F8022B00EBC50189889142CC
S31502001BA0F2D150F835009BF80010012200F0B8502F
S31502001BB002FA06FAB0F1807F0AEA010015D158B995
S31502001BC0012000F07BFC9BF8000040EA0A008BF83B
S31502001BD00000012000F048FC98F900000028D3D448
S31502001BE098F8000040F08000C8E758B1012000F0E4
S31502001BF065FC9BF8000020EA0A008BF80000012031
S31502001C0000F032FC98F90000B0F1FF3FBCDC98F816
S31502001C10000000F07F00B1E701B0BDE8000FF0BDA3
S31502001C204EF22401C4F201018878098801F00F02FC
S31502001C30A2F1080103293BD8DFE801F0022C101EAD
S31502001C4040F20041C2F2002151F820004AF6AB21CF
S31502001C50CAF6AA21A0FB0101480830E040F2004181
S31502001C60C2F2002151F820004AF6AB21CAF6AA2197
S31502001C70A0FB0101C80822E040F20041C2F20021A5
S31502001C8051F820004AF6AB21CAF6AA21A0FB0101AF
S31502001C90080914E040F20041C2F2002151F8200086
S31502001CA04AF6AB21CAF6AA21A0FB0101880806E082
S31502001CB040F20041C2F2002151F82000D04042F623
S31502001CC09C51C2F2042108607047D4D4D4D4D4D42F
S31502001CD0F0B503AF2DE9000F81B00FF2E4504EF2DA
S31502001CE0FA3840F2004BC4F2010890ED001FC2F22E
S31502001CF0002B0FF2DC504AF203514EF25505CFF695
S31502001D00FF71A8F800108BED001F0BF12003C4F23F
S31502001D10010590ED001F48F2004040F60001C1F2B5
S31502001D20D77043F600028BED041FC2F6AF71C1F6FF
S31502001D309C4207C315F82F0C35F8311C01F00F022F
S31502001D40A2F1080103292BD8DFE801F002200C16C4
S31502001D504AF6AB215BF82000CAF6AA21A0FB0101D4
S31502001D60480820E04AF6AB215BF82000CAF6AA2111
S31502001D70A0FB0101C80816E04AF6AB215BF8200079
S31502001D80CAF6AA21A0FB010108090CE04AF6AB211A
S31502001D905BF82000CAF6AA21A0FB0101880802E02E
S31502001DA05BF82000D04042F69C5A4EF60046C2F23C
S31502001DB0042AC4F201060A214EF60144CAF80000BA
S31502001DC04FF65060CFF6FF704AF20359C4F201048F
S31502001DD03154092085F84D00307818B920788007EB
S31502001DE000F06282307840B901203070C8200121AB
S31502001DF000F0B7FA30780128FCD10020207030704C
S31502001E00002005F81F0C05F8230C15F8190C00071D
S31502001E10FBD542F60230C0F20100C5F8730040F26B
S31502001E20234025F8070C002005F80B0C4FF602108C
S31502001E30C5F8570040F2514025F8090C15F8410C37
S31502001E4000F0F800013005F8410C15F8410CC00607
S31502001E50FBD4002005F82B0C15F8190C8006FBD5CF
S31502001E604CF200060020C4F2130630703078307847
S31502001E7030787068FA2806D0FA20C1F600607060E1
S31502001E807168FA29FBD1B0687D2806D07D20CEF292
S31502001E900010B060B1687D29FBD143F23240C3F233
S31502001EA0232045F8350C42F2201025F8310C052086
S31502001EB005F82F0C15F82F0C35F8311C01F00F021E
S31502001EC0A2F1080103292BD8DFE801F002200C1643
S31502001ED04AF6AB215BF82000CAF6AA21A0FB010153
S31502001EE0480820E04AF6AB215BF82000CAF6AA2190
S31502001EF0A0FB0101C80816E04AF6AB215BF82000F8
S31502001F00CAF6AA21A0FB010108090CE04AF6AB2198
S31502001F105BF82000CAF6AA21A0FB0101880802E0AC
S31502001F205BF82000D040CAF800001E2001210124DF
S31502001F3000F017FA70686FF39F20652828BF347087
S31502001F4015F82F0C35F8311C01F00F02A2F1080129
S31502001F5003292BD8DFE801F002200C164AF6AB2142
S31502001F605BF82000CAF6AA21A0FB0101480820E07E
S31502001F704AF6AB215BF82000CAF6AA21A0FB0101B2
S31502001F80C80816E04AF6AB215BF82000CAF6AA2179
S31502001F90A0FB010108090CE04AF6AB215BF8200020
S31502001FA0CAF6AA21A0FB0101880802E05BF820001C
S31502001FB0D040CAF8000042F20000C4F20000A9F1C3
S31502001FC0020101800121BFF35F8F01724FF42541A7
S31502001FD0BFF35F8F018095F8850040F0400085F8D9
S31502001FE0850095F98500B0F1FF3FFADC032085F8FC
S31502001FF07F00C92085F8850095F8850000F0BF00AE
S3150200200085F8850095F985000028FBD4012005F89E
S31502002010250C05F8030C05F8020C002005F8170C30
S31502002020802005F8170CE87F40F04000E87795F924
S315020020301F00B0F1FF3FFADC0720E8754A20E87777
S315020020400A20E87795F91F000028FBD4B8F80000AB
S31502002050A8F8009095F8201041F0400185F820106C
S3150200206095F92010B1F1FF3FFADC002129764721CC
S3150200207085F82010072185F8201095F920100029EF
S31502002080FBD4A8F8000095F8210040F0400085F83E
S31502002090210095F92100B0F1FF3FFADC03206876B2
S315020020A0CA2085F8210095F8210000F0BF0085F8C6
S315020020B0210095F921000028FBD4287840F0400041
S315020020C0287095F90000B0F1FF3FFADC022005F80E
S315020020D0010CCA202870287800F0BF00287095F9F4
S315020020E000000028FBD4A87840F04000A87095F9BB
S315020020F00200B0F1FF3FFADC00206870C720A8702A
S31502002100A87800F0BF00A87095F902000028FBD459
S31502002110287A40F04000287295F90800B0F1FF3F96
S31502002120FADC0120E871C6202872287A00F0BF0086
S31502002130287295F908000028FBD495F8230040F090
S31502002140400085F8230095F92300B0F1FF3FFADC41
S315020021500220E876C92085F8230095F8230000F0CE
S31502002160BF0085F8230095F923000028FBD4A87A3E
S3150200217040F04000A87295F90A00B0F1FF3FFADC80
S3150200218001206872CA20A872A87A00F0BF00A8725D
S3150200219095F90A000028FBD495F8220040F0400089
S315020021A085F8220095F92200B0F1FF3FFADC0420FF
S315020021B0A876CA2085F8220095F8220000F0BF0012
S315020021C085F8220095F922000028FBD4A87940F070
S315020021D04000A87195F90600B0F1FF3FFADC022033
S315020021E06871CA20A871A87900F0BF00A87195F994
S315020021F006000028FBD495F8860040F0400085F8DA
S31502002200860095F98600B0F1FF3FFADC022085F8D8
S315020022108000C52085F8860095F8860000F0BF008C
S3150200222085F8860095F986000028FBD495F8870084
S3150200223040F0400085F8870095F98700B0F1FF3F2E
S31502002240FADC012085F88100C52085F8870095F81B
S31502002250870000F0BF0085F8870095F987000028FF
S31502002260FBD495F8890040F0400085F8890095F97D
S315020022708900B0F1FF3FFADC092085F88300C92006
S3150200228085F8890095F8890000F0BF0085F8890075
S3150200229095F989000028FBD44FF42540A8F80000E0
S315020022A001B0BDE8000FF0BD4FF47A7000F018F8E7
S315020022B0A6E500BF00BF00BF00BF00BF00BF00BF52
S315020022C0006CDC0200127A000080000000366E010B
S315020022D00080000000CA9A3B0046C3235543DE1322
S315020022E07047B0B502AF42F22404C820C4F22004FB
S315020022F001210025257100F034F82570207808B1F7
S315020023002FF005C0207840F0020020702078800768
S31502002310FCD4002004F8020C14F8020C08B12FF0C9
S3150200232005C84FF0030E002004F11C0111F810201D
S3150200233002F07F0201F8102011F91020002AFBD4C6
S3150200234001300FF00DC8012000F0B8F84EF64C41EE
S315020023500120C4F2010100220A70BDE8B04000F07B
S3150200236083B842F69C5241F20023C2F20422C0F222
S315020023707A03484312689A420FD344F23F21C0F2CD
S315020023800F0111444DF68362C4F21B32A1FB021205
S31502002390910CA0FB0101C9B11DE04CF60021C3F668
S315020023A09A31B1FBF2F148F63812C0F2410290427C
S315020023B005D24FF47A725043B0FBF1F006E0B0FB5F
S315020023C0F1F0904207D24FF47A714843002808BFD1
S315020023D0704700F005B84FF0FF3000F001B8D4D4D2
S315020023E001380028FCD17047F0B503AF4DF8048DD3
S315020023F04CF2201842F63054C4F200080026C2F20B
S31502002400042458F8200CD8F8001001EA000503E06D
S3150200241001360434152E09D025FA06F0C007F7D086
S3150200242021680029F4D0F0B28847F1E748F8105C39
S31502002430D8F800002842FBD15DF8048BF0BD80B5C8
S315020024406F464FF0030E4CF2003043F2A061C4F225
S315020024500000C0F2002131F8022B002A18BF0260E8
S3150200246004300FF009C080BD0122EFF3108182F320
S31502002470108842F69452C2F2042232F8103023B186
S3150200248032F81030013B22F8103032F8102012B127
S3150200249081F3108870474EF2FA3243F6F80CC4F212
S315020024A00102C0F2002C13883CF8100043F42543C5
S315020024B023EA0000108081F310887047D0B502AF7E
S315020024C00122EFF3108182F3108842F69452C2F28F
S315020024D0042232F8103083B94EF2FA3E43F6F80C73
S315020024E0C4F2010EC0F2002CBEF800403CF81030D7
S315020024F0234343F42543AEF8003032F8103001335B
S3150200250022F8103081F31088D0BD80B56F4600F0F6
S3150200251007F8FEF783FEFEE700BE7047D4D4D4D494
S31502002520F0B503AF2DE900074EF6085840F2012038
S31502002530CEF20008C0F20E004EF20004C8F80C00FB
S31502002540CEF20104BFF34F8FBFF36F8F58F8080C1A
S31502002550C0F3035110F00F0F5FEA0F9001295FEAF3
S315020025601081206810D879B940F0040020604EF23C
S315020025700800BFF34F8FCEF20000BFF36F8F0168E2
S3150200258041F48031016002E020F004002060BFF3D4
S315020025904F8FBFF36F8F4FF4700040F20001C8F8FF
S315020025A080000020C0F20021C8F80010FEF7C9F929
S315020025B0FFF78EFB0120FEF7C4F940F20000C2F2DB
S315020025C0002080F30A882068800725D5D8F8000005
S315020025D0B0F1007F20D120694FF40071C0F3C3002F
S315020025E0626901FA00F3C2F3C30081400020DA08EF
S315020025F00646CB08014642F007C800BF00BF00BF2F
S31502002600E6E802010FF005C04FF0005243F005C0A4
S31502002610E2E802010FF005C043F2CC69C0F20029DC
S31502002620D9F800508DB1D9F804002E46041D03E0F6
S31502002630013E04F10C0408D060790028F8D154E96F
S315020026400101091A00F0F0F8F2E7D9F808A0BAF188
S31502002650000F13D0D9F80C00564600F1080403E027
S31502002660013E04F1100409D060790028F8D154E93A
S3150200267002022168121A00F0DBF8F1E7FFF7D0FA3E
S31502002680FFF72FFE0320FFF719FF4FF00E0E40F65D
S315020026903050C4F24000002120F8041B0FF005C0A0
S315020026A04EF210140320C4F20104FFF7DDFE0320EC
S315020026B0FFF704FF44F204000021C4F22000016087
S315020026C041608160C1600320FFF7CEFED4F8C802E4
S315020026D010B1D4F8C80211E0207878B10120FFF7D2
S315020026E0EDFE207800F0C0008028FAD1002020708C
S315020026F020783F28FCD80120FFF7B6FE0120FFF71D
S31502002700DDFE207900F0C0008028FAD10020207179
S3150200271020793F28FCD80120FFF7A6FE0220FEF70B
S3150200272010F99DB1D9F804004FF48076041D03E038
S31502002730013D04F10C0409D06079B6EB002FF7D104
S3150200274054E90101091A00F06FF8F1E7BAF1000F36
S3150200275016D0D9F80C004FF4807500F1080404E095
S31502002760BAF1010A04F110040AD06079B5EB002F20
S31502002770F6D154E902022168121A00F059F8EFE77D
S3150200278042F6A454C2F20424204600F02DF8204654
S3150200279000F040F8BFF34F8F002043F64E11BFF30F
S315020027A06F8FC8F8480243F64E10C0F20020C0F2FE
S315020027B00021BFF34F8F081ABFF36F8F8410012CCD
S315020027C008DB43F64E15C0F2002555F8040B804788
S315020027D0013CFAD1FFF733FE0020BDE80007BDE851
S315020027E0F04000F000B87047D0B502AF0549044684
S315020027F0054A00F01DF805480549204400F014F882
S31502002800D0BD00BF6400000200000000000000000E
S31502002810000000000249401A02490860704700BFE2
S3150200282008000000A02D04220A46002100F00AB882
S31502002830D0B502AF00239A4203D0CC5CC454013314
S31502002840F9E7D0BD00239A4208BF7047C15401334D
S31502002850F9E7D4D440B584B002AE009600F004F88D
S31502002860029A039B04B040BD2DE9F04F099D8446B0
S3150200287081B1C2B16BB3B1FA81F7B3FA83F6F71B32
S31502002880202F50D3002D18BFC5E900C1002000211A
S31502002890BDE8F08FD3B30021002D4AD00020C5E950
S315020028A000C1BDE8F08F002B46D000285CD05F1E29
S315020028B03B4266D1002D1CBF07EA0100C5E900C0F4
S315020028C093FAA3F0B0FA80F021FA00F00021BDE8F5
S315020028D0F08F571E3A4232D1002D1EBF0023074009
S315020028E0C5E90073012A0ED092FAA2F24F00B2FA9B
S315020028F082F202F01F03D140D8401F23934307FA06
S3150200290003F343EA000C6046BDE8F08FB0FBF2FC2D
S31502002910002D1EBF0CFB12000021C5E9000100219B
S315020029206046BDE8F08F07F1010CBCF1200F10D014
S3150200293031E00020BDE8F08F6046BDE8F08FB1FAC5
S3150200294081F7B2FA82F6F71B07F1210CBCF1200FD0
S3150200295032D14FF000094FF0200C0D464FF0000A1D
S31502002960BCF1010F26D04DE0B1FBF3FC002D1EBFDA
S315020029700CFB13100021C5E9001000216046BDE8DA
S31502002980F08FB1FA81F7B3FA83F6F71B1F2FBFF464
S3150200299079AF07F1010C87F01F0720FA0CF621FA2E
S315020029A00CF901FA07F5B84035434FF0000ABCF1BD
S315020029B0010F27D1002466E0BCF11F0F0FD8CCF11E
S315020029C0200620FA0CF721FA0CF901FA06F5B040B6
S315020029D03D434FF0000ABCF1010FEBD012E0ACF11F
S315020029E02007CCF140044FF0000920FA07F601FA5D
S315020029F004F52E4300FA04FA21FA07F53046BCF133
S31502002A00010FD7D02CF001070126023F4FF0000B31
S31502002A1006EB570E4FEA490444EAD5746D0045EABF
S31502002A20D0754000E743E943891847EB0308AF1A1C
S31502002A3064EB0306B8F1000F56EA448457EA45856B
S31502002A40640044EAD5746D0045EAD07540EADA704E
S31502002A50AE1A6FEA050164EB030789184FEA4000D4
S31502002A606FEA0401594157EA448956EA4585CC0F73
S31502002A704BEA4A010027A34640EAD170490041EADF
S31502002A80D87A0FF039C85FEACC711ED06F004FEAD0
S31502002A90490147EAD07741EAD571B7EB020C4FEA12
S31502002AA0400061EB030EFD4352196FEA010656EB35
S31502002AB0030240EADA705EEA41895CEA4785D10F91
S31502002AC044EA4A0200270C4692464FEADA7141EA84
S31502002AD0400009994FEA4A02002918BFC1E9005984
S31502002AE040EA070122F001002043BDE8F08F000012
S31502002AF00000000054545220524547474553000AED
S31502002B002E2E2E202873686F77696E67206669728B
S31502002B107374203332206F6620256C752073616DC5
S31502002B20706C6573290050444D204F70656E3A20D3
S31502002B30535543434553530A004D696E2076616CE3
S31502002B4075653A2030782530386C582028256C6413
S31502002B50290A003D3D3D3D3D3D3D3D3D3D3D3D3D21
S31502002B603D3D3D3D3D3D3D3D3D3D3D3D3D0A0A0030
S31502002B70417665726167653A2030782530386C583F
S31502002B802028256C64290A000A3D3D3D3D3D3D3D18
S31502002B903D3D3D3D3D3D3D3D3D3D3D3D3D3D3D3D5D
S31502002BA03D3D3D3D3D3D3D3D3D3D3D3D3D3D3D3D4D
S31502002BB03D3D3D3D3D3D3D3D3D0A00546F74616CDA
S31502002BC02073616D706C657320636F6C6C656374E2
S31502002BD065643A20256C750A000A3D3D3D20415543
S31502002BE044494F204441544120414E414C59534996
S31502002BF053203D3D3D0A004D61782076616C756536
S31502002C003A2030782530386C582028256C64290AF9
S31502002C10000A535B2530346C755D3A2000436F6CB5
S31502002C206C656374696F6E20656666696369656E55
S31502002C3063793A20252E316625250A0050444D2017
S31502002C405374617274204641494C45443A203078A7
S31502002C5025580A000A0A3D3D3D20454E4420434F71
S31502002C604D504C45544520444154412044554D5005
S31502002C70203D3D3D0A00534F554E442044455445A0
S31502002C804354454421202823256C75290A004D61A9
S31502002C907820636F6C6C656374696F6E2063617014
S31502002CA061636974793A20256C752073616D706C65
S31502002CB065732028252E3166207365636F6E6473F3
S31502002CC0290A002A2A2A205741524E494E473A20BB
S31502002CD04C617267652064617461206F75747075EA
S31502002CE07420616865616421202A2A2A0A005265D5
S31502002CF0636F7264696E67206475726174696F6E60
S31502002D003A20256C752E2530336C75207365636FFA
S31502002D106E64730A00284E554C4C29000A5B253016
S31502002D20366C755D3A20005A65726F2073616D705C
S31502002D306C65733A20256C752028252E316625256B
S31502002D40290A0046696C74657220736574746C692D
S31502002D506E6720282564206D73292E2E2E0A0054B4
S31502002D606F74616C2063616C6C6261636B733A2091
S31502002D70256C750A00202020436F6C6C65637465B0
S31502002D80643A20256C75202F20256C752073616DA1
S31502002D90706C65732028252E31662525290A000ABE
S31502002DA05B4552524F522023256C755D2050444D8F
S31502002DB0204572726F722028466C6167733A203022
S31502002DC078256C58290A003D3D3D3D3D3D3D3D3D42
S31502002DD03D3D3D3D3D3D3D3D3D3D3D3D3D3D3D3D1B
S31502002DE03D3D3D3D3D3D3D3D3D3D3D3D3D3D3D3D0B
S31502002DF03D3D3D3D3D3D3D0A002020204255464693
S31502002E004552204F5645525752495445202D20448B
S31502002E10617461206D617920626520636F727275DB
S31502002E2070746564210A005374617274696E672056
S31502002E30636F6D706C65746520646174612064757E
S31502002E406D702E2E2E0A000A2A2A2A20434F4C4C37
S31502002E50454354494F4E2042554646455220465513
S31502002E604C4C202D2053544F5050494E472045413B
S31502002E70524C59202A2A2A0A000A3D3D3D20504436
S31502002E804D204D6963726F70686F6E6520436F6D7A
S31502002E90706C657465204461746120436F6C6C6567
S31502002EA06374696F6E203D3D3D0A005265636F7221
S31502002EB064696E6720737461727465642120436F5E
S31502002EC06C6C656374696E6720616C6C20646174F6
S31502002ED0612E2E2E0A000A003D004E656761746956
S31502002EE076652073616D706C65733A20256C75206A
S31502002EF028252E31662525290A000A5B50524F479E
S31502002F00524553535D2043616C6C6261636B2023AF
S31502002F10256C750A005465726D696E616C004669AE
S31502002F207273742063616C6C6261636B207374618B
S31502002F307274656421204461746120636F6C6C65F0
S31502002F406374696F6E20626567696E732E2E2E0A30
S31502002F50002020003D3D3D20434F4D504C455445F9
S31502002F6020415544494F20444154412044554D5037
S31502002F70203D3D3D0A00546F74616C20636F6C6C9A
S31502002F8065637465642073616D706C65733A2025A0
S31502002F906C750A000A2E2E2E2050726F67726573A8
S31502002FA0733A20256C75202F20256C752073616D70
S31502002FB0706C657320282564252529202E2E2E0A5D
S31502002FC0000A3D3D3D20415544494F20444154416C
S31502002FD02043414C4C4241434B2023256C75203DF6
S31502002FE03D3D0A0050444D204F70656E20464149D2
S31502002FF04C45443A20307825580A002530386C581A
S3150200300020000A3D3D3D20454E442043414C4C4262
S3150200301041434B2044415441203D3D3D0A0A005262
S3150200302065636F7264696E672066696E6973686547
S31502003030642E2050726F63657373696E67206461D4
S3150200304074612E2E2E0A000A3D3D3D2046494E4110
S315020030504C20414E414C59534953203D3D3D0A00B7
S315020030604572726F727320656E636F756E746572E8
S3150200307065643A20256C750A004461746120666FA6
S31502003080726D61743A2033322D62697420686578F4
S31502003090202832302D62697420656666656374691C
S315020030A07665290A0053616D706C6520636F756ED3
S315020030B0743A20256C750A000A3D3D3D20434F4C6B
S315020030C04C454354494F4E20434F4D504C45544571
S315020030D0203D3D3D0A0044796E616D69632072614F
S315020030E06E67653A20256C750A005B554E4B4E4F4E
S315020030F0574E5D2050444D206576656E743A202504
S31502003100640A003031323334353637383941424376
S31502003110444546D400000000000000000000000004
S3150200312000000000000000080000000004057C000A
S31502003130613FC13E004000C0E81F39003C00561EF8
S31502003140DC01E106DC01561E3C003900E81F0004E2
S31502003150F81F0A00F01F1800DC1F3400B31F7600A8
S315020031602E1F890289022E1F7600B31F3400DC1F30
S315020031701800F01F0A00F81F0400000000000000FB
S31502003180C0E00000401F0000000000000200000036
S315020031900000000000000000250E000200000000F2
S315020031A01431000202010301000200000040000087
S315020031B00000000000400000060000000040000081
S315020031C00800000000400000090000000040000066
S315020031D00C000000450000000D000000000C011C60
S315020031E000010000000C011C01010000000C011C82
S315020031F002010000000C011C03010000000C011C6E
S3150200320004010000000C011C05010000000C011C59
S31502003210060100000040000007010000450400000E
S3150200322009010000104000000B010000000C010B18
S315020032300C010000000C010B0D010000000C010B3B
S315020032400E010000000C010B0F01000000400000FF
S3150200325000020000000C011806020000000C011911
S3150200326007020000000C010008020000000C010029
S3150200327009020000000C01000A020000000C010015
S315020032800B020000000C010B00030000000C010BF6
S3150200329001030000000C010B02030000040C0000F5
S315020032A003030000000C011804030000000C0118BF
S315020032B005030000000C011806030000000C0118AB
S315020032C007030000000C011809030000000C011896
S315020032D00A030000400C010700040000400C01072D
S315020032E001040000000001120204000000000112A5
S315020032F0030400000000011204040000000401128D
S315020033000504000000040112060400000004011373
S315020033100704000000040114080400000004011F51
S315020033200B040000000401180E040000000401183A
S315020033300F0400000000011300050000000C010349
S31502003340010500000004011B02050000000C010B30
S3150200335003050000000C010B04050000000C010B24
S3150200336005050000000C010B06050000000C010B10
S3150200337007050000000C010B08050000000C010BFC
S3150200338009050000000C010B0A05000040040107B4
S315020033900B050000400401070C050000000C011992
S315020033A00D050000040400000E050000000C0119C2
S315020033B00F050000040C00000006000004040000D3
S315020033C006060000000C010B07060000000C010BAC
S315020033D008060000000C010B09060000000C010B98
S315020033E00A060000000C010B0B060000000C010B84
S315020033F00C060000000C010B0D060000000C010B70
S315020034000E060000000C010B0F060000000C01194D
S315020034100707000004040000080700000404000077
S3150200342009070000000C01190A070000000C011927
S315020034300B070000000C01190C070000000C011913
S315020034400D070000000C01190E070000000C0119FF
S315020034500F070000000C011C00080000000C011CF4
S3150200346001080000000C011C02080000000C011CEF
S3150200347003080000000C011C04080000000C0119DE
S3150200348005080000000C011906080000000C0119CD
S3150200349007080000000C011C080800000000011BC0
S315020034A00B0800000004011B0C080000000C010BB5
S315020034B00D080000000C01130E080000000C011399
S315020034C00F080000000C011902090000000C011986
S315020034D003090000000C011904090000000C011880
S315020034E005090000000C011806090000000C01186D
S315020034F007090000000C011808090000000C011859
S3150200350009090000000C01190A090000000C011942
S315020035100B090000000C01190C090000000C01192E
S315020035200D090000000C01190E090000000C01191A
S315020035300F090000000C010B000A0000000C010B31
S31502003540010A0000000C010B020A0000000C010B2C
S31502003550030A0000000C010B040A0000000C010B18
S31502003560050A0000000C010B060A0000040C00000C
S31502003570070A0000000C010B080A0000000C010BF0
S31502003580090A0000000C010B0A0A0000000C010BDC
S315020035900B0A0000000C010B0C0A0000000C010BC8
S315020035A00D0A0000000C010B0E0A0000000C010BB4
S315020035B00F0A0000000C0119000B0000000C011993
S315020035C0010B0000000C0119020B0000000C01198E
S315020035D0030B0000000C0119040B0000000C01197A
S315020035E0050B0000000C0119060B0000000C011966
S315020035F0070B0000000C010B000C0000000C010B75
S31502003600010C0000000C010B020C0000000C010B67
S31502003610030C0000000C010B040C0000000C010B53
S31502003620050C0000000C010B060C0000000C010B3F
S31502003630070C0000000C010B080C0000000C010B2B
S31502003640090C0000000C010B0A0C0000000C010B17
S315020036500B0C0000000C010B0C0C0000000C010B03
S315020036600D0C0000000C010B0E0C0000000C010BEF
S315020036700F0C0000000C010B000D0000000C0104F1
S31502003680020D0000000C0104030D000000040114E9
S31502003690070D00009D000000AC3100020000000092
S315020036A0C200C100C500020403040404000000684D
S315020036B0000000680000008000000080000000702A
S315020036C00000007000000022000000220B00000033
S315020036D0E436000219000000683700020400000008
S315020036E0AC36000200000068000000680001000D10
S315020036F000000068000000680001000D0000008064
S315020037000000008000010008000000800000008028
S315020037100001000800000070000000700001000AAD
S3150200372000000070000000700001000A00000000A6
S31502003730000000000100000500000020000000203B
S315020037400100000400000022000000220000000325
S3150200375030040022A42D042200000003A42D04221A
S31502003760A42D042200000003000000680000006887
S31502003770000000900001090D0000006800000068CA
S315020037800000007800010B0D0000006800000068D0
S31502003790000000270001020D00000068000000681A
S315020037A0640000020001010D00000080000000809C
S315020037B0000000900001090800000080000000805F
S315020037C00000007800010B08000000800000008065
S315020037D000000027000102080000008000000080AF
S315020037E06400000200010108000000700000007081
S315020037F0000000900001090A00000070000000703D
S315020038000000007800010B0A000000700000007042
S31502003810000000270001020A00000070000000708C
S31502003820640000020001010A00000000000000001E
S3150200383000000090010109050000000000000000E0
S315020038400000007801010B050000000000000000E6
S315020038500000002701000205000000000000000031
S3150200386064000002010001050000002000000020A3
S315020038700000009001010904000000200000002061
S315020038800000007801010B04000000200000002067
S3150200389000000027010002040000002000000020B2
S315020038A06400000201000104000000220000002260
S315020038B0000000900001090300000022000000221F
S315020038C00000007800010B03000000220000002225
S315020038D00000002700000203000000220000002270
S315020038E06400000200000103A42D0422A42D042278
S315020038F0640000020000010301000200080010003B
S3150200390000000006362E302E30004275696C742097
S31502003910776974682052656E6573617320416476B7
S31502003920616E63656420466C657869626C652053D6
S315020039306F667477617265205061636B616765209B
S3130200394076657273696F6E20362E302E300059
S30902C9F040FFFFFFFFFF
S30902C9F044E9FFFFFF11
S30902C9F0C0FFFFFFFD81
S30902C9F0C4FFFFFFBFBB
S30902C9F120000000001A
S30902C9F1240000000016
S7050200250BC8
