S00B000050444D2E7372656338
S31502000000000400223B2400021923000249240002B4
S31502000010492400024924000249240002492400021C
S315020000200000000000000000000000004924000259
S31502000030492400020000000049240002492400026B
S315020000407D17000205180002C9180002091B0002EA
S315020000501000000000000000017A5200017C0E012F
S30D020000601B0C0D00000000005C
S31502000070F0B503AF2DE9000F83B000EB400040F26C
S315020000803043C2F20023154603EBC0088946D8F86E
S315020000902C0002281AD001280CD048B9444654F83C
S315020000A0246F6068F143B04275D90844A84279D2F8
S315020000B000269BE0C2465AF8244FDAF80410A14201
S315020000C03FD9E0430144D8F820003FE058F824AF76
S315020000D008F10400A8F1040B00260290A8F108001A
S315020000E0019024E0DBF8001010440844A1EB0A0159
S315020000F0884250EA31804946A84250EA358401983E
S3150200010022460068504402F02BFB04EB0A00DBF89F
S315020001100010411AA5EB040550EA118A2644A144AF
S31502000120002DBFF35F8F4046C8F800A05ED002984C
S315020001306FEA0A0200685045D4D91044DBF8001071
S31502000140D4E7E243D8F8200011440144A94251EA17
S315020001503586051B58F81C0F2044AE4209D2494683
S31502000160324602F0FDFABFF35F8F3019CAF800007B
S315020001703CE049462A46444602F0F2FAA6EB050856
S31502000180206809EB0501424602F0EAFABFF35F8FE7
S31502000190CAF800802AE0D8F8202008441044A84271
S315020001A0FFF486AF58F81C0FD8F804103044A1EBC0
S315020001B0060A554508D249462A4602F0D1FABFF345
S315020001C05F8F7019206010E049465246464602F09B
S315020001D0C7FAA5EB0A08306809EB0A01424602F0A3
S315020001E0BFFABFF35F8FC4F800802E46304603B0D5
S315020001F0BDE8000FF0BDF0B503AF4DF8048D40F237
S3150200020030450C46C2F200252B78532B38D0804657
S31502000210A8212846164602F09FFA03202861686143
S3150200022040F2D84042F6FD11C2F20020C0F200218F
S31502000230A961E8614FF4006028620020A862686242
S31502000240E862296640F6D8414FF0100EC2F200214C
S315020002506966C5F868E02867E8666867BFF35F8F76
S3150200026042F2B871C0F2002180F00F0201308A5CBE
S3150200027005F8012B0FF009C032464046BFF35F8FE7
S31502000280EFF311854FF0200181F311882146FFF724
S31502000290EFFE85F311885DF8048BF0BDD0B502AF91
S315020002A040F23044A821C2F20024204602F054FA59
S315020002B003202061606140F2D84042F6FD11C2F28D
S315020002C00020C0F20021A161E0614FF400602062CB
S315020002D00020A0626062E062216640F6D8414FF0DB
S315020002E0100EC2F200216166C4F868E02067E0667B
S315020002F06067BFF35F8F42F2B871C0F2002180F0EF
S315020003000F0201308A5C04F8012B0FF009C0BFF31B
S315020003105F8FD0BDF0B503AF2DE9000F9BB09046BD
S315020003200C4606A94FF0000B04901A900020169175
S3150200033040211791CDE918BB0EE0011DC8F8001047
S315020003400168CDE9003916A8534600F027FA199834
S31502000350B0F1FF3F40F31E8214F8011B25291CD081
S31502000360002900F00982DDE91720431C934207D8D1
S31502000370169A115418931998179A0130199018461B
S315020003809042E4D116991A98FFF735FF18998842D8
S3150200039040F0EF81CDF860B0D9E74FF0000921783F
S315020003A0A1F123030D2B13D80222DFE803F00B1170
S315020003B01111111111110D110F11110749EA02093B
S315020003C00134ECE70822F9E70422F7E70122F5E710
S315020003D0A1F13A02002312F10A0F0ED30A4614F8CB
S315020003E0011F03EB8303A1F13A0602EB430216F166
S315020003F00B0FA2F130030A46F1D82E290ED122465E
S3150200040012F8015F2A2D0DD1D8F8001002340A1D08
S31502000410C8F80020D1F800A001211EE000214FF00B
S31502000420000A1AE0A5F13A0616F10A0F03D20021D4
S315020004304FF0000A10E04FF0000A12F8011F0AEB13
S315020004408A06A1F13A0405EB460614F10B0FA6F152
S31502000450300A0D46F1D80121144614F8012B02F098
S31502000460FB06682EF9D0A2F15806202E26D8DFE820
S3150200047006F01211111111111111111111163C115F
S31502000480111111111111111111117111117E113860
S31502000490111112005BE7D8F8000010224DE7DDE9E2
S315020004A01720411CD8F80030914203F10406C8F81F
S315020004B000603FF665AF169A1B680AE0252A7FF4AC
S315020004C046AFDDE91720411C91423FF659AF169A15
S315020004D02523135418911998179A01301990084632
S315020004E04EE7D8F800000A2227E7D8F800104CF6A3
S315020004F0CD4C0A1DC8F80020D1F800E0CCF6CC4C51
S31502000500BEF1000FCEF10001724648BF0A460391C2
S315020005100A2A4FF0010107DBA2FB0C56632A01F1FE
S3150200052001014FEAD602F7D8514551EA8A8C0026D4
S31502000530002BCDF814E056D0BEF1000F5FEA5F91B2
S3150200054009F0040241EA9201A3EB010B5FEA897505
S315020005504ED475E0D8F800001022011DC8F800102C
S31502000560016808200823CDE9000B16A8EDE6D8F8A5
S315020005700020131DC8F80030126842F6D703002A7D
S31502000580C0F2002352EA13855FEA018908E019984E
S31502000590CDF860B0B0F1FF3FAAF1010A7FF7D7AEFE
S315020005A015F8011BBAF1000F5FEA198200293FF420
S315020005B0CEAE002A7FF4CBAEDDE917235E1C96424F
S315020005C007D81698C15433461998179A01301896C7
S315020005D019909342DED116991A98FFF70CFE1899D4
S315020005E08842D4D0C5E04FF0000B5FEA897527D563
S315020005F0BAF1000F24D1002800F1B8800599B1F1B3
S31502000600FF3F4FDD5FEA497174D5DDE917214B1CC7
S31502000610934208D816982B22425419461998179ACB
S3150200062001301893199091425BD116991A98029546
S315020006306546FFF7E0FD1899884205994CD098E087
S315020006405FEAC971D7D1BBF1000FD4D0029504E09D
S3150200065000260028AB4600F18980ABF101055D4515
S3150200066038BFDC4540D2DDE917214B1C934208D83E
S3150200067016982022425419461998179A013018934F
S3150200068019904FF0000B9142E2D116991A986646DC
S31502000690FFF7B1FD189988426BD11998B446CDF887
S315020006A060B0D5E7DDE917214B1C934208D81698AE
S315020006B02D22425419461998179A01301893199007
S315020006C0914213D116991A9802956546FFF793FD42
S315020006D01899884203994CD11998AC46029D1896EE
S315020006E00591002806D541E0029D84E7039905910C
S315020006F000283BD4002D0AD40A2216A8059953468F
S31502000700CDE900B900F04AF84FF0000B1FE609F0F8
S31502000710010151EA0A01EFD1BBF1000FECD0ABF1B6
S3150200072001055D4538BFDC45E6D2DDE917214B1CE4
S31502000730934208D816983022425419461998179AA5
S315020007400130189319904FF0000B91420BD1169974
S315020007501A986646FFF74FFD1899884209D11998EB
S31502000760B446CDF860B00028AB46D8D54FF0000BA2
S31502000770EDE54FF0FF300DE040B1189A42B106A9FF
S315020007800498FFF738FDDDE9181002E0002001E0C9
S31502000790002108441BB0BDE8000FF0BDF0B503AF61
S315020007A02DE9000F81B01546884691421E46044641
S315020007B0D7F808A04FF0010005D34146B1FBF5F189
S315020007C00130A942FAD2B04250EA8689BAF1000F44
S315020007D0F96835D011F0010032D188074FF02001B7
S315020007E04FF0200048BF3020002E50EA018B03E074
S315020007F0E068B0F1FF3F23DDBAF1000F20D0D1450A
S315020008001ED2D4E90120411C914208D8226802F87E
S3150200081000B0A160E06862680130E060084690427C
S31502000820AAF1010AE4D121682069FFF7E4FCA16874
S31502000830884202D10020A060DAE74FF0FF30E06084
S31502000840E06800283ED44FF0010B02E0013E0BFBAC
S3150200085005FB022EFAD2B8FBFBF1A942F7D2A26837
S315020008606168531CB8FBFBF68B420CD842F6DD31AD
S315020008702068C0F20021895D81541A46E0686168E9
S315020008800130A360E0608A4209D121682069FFF73E
S31502000890B2FCA26890420CD10022E068A260002855
S315020008A00AD4BBFBF5F106FB1B88AB458B46D7D2B8
S315020008B002E04FF0FF30E060F968C90718BFBAF1ED
S315020008C0000F03D101B0BDE8000FF0BD2025AAF14B
S315020008D00106564538BFD145F4D26168531C8B4296
S315020008E007D8206885541A46E06861680130A3601B
S315020008F0E0608A4209D121682069FFF77CFCA16881
S31502000900884207D10022E068A260B0F1FF3FB246FA
S31502000910DDDCD7E74FF0FF30E060D3E782B080B589
S315020009206F4682B0C7E9022307F10802019201AAC3
S31502000930FFF7F0FC02B0BDE8804002B0704700F05D
S31502000940E7BA022818BF704741F2F80043F2701165
S31502000950C2F20A20C0F2002100F0F4BFF0B503AFE4
S315020009602DE9000F81B042F69A110020C0F2002153
S31502000970FFF7D4FF42F69C143C25C0F20024002067
S315020009802146FFF7CBFF013DF9D142F69A1400202A
S31502000990C0F200242146FFF7C1FF42F61F210020C4
S315020009A0C0F20021FFF7BAFF40F6E84542F64121C0
S315020009B0C2F20025C0F2002100202A68FFF7AEFF2E
S315020009C028684FF47A71484344F6D352C1F2620260
S315020009D048F63816A0FB0223C0F241069A0AA2FB89
S315020009E006264DF68362C4F21B32A0FB020206FB08
S315020009F001F042F68401920DC0F20021C0EB93236E
S31502000A000020FFF78BFF42F68A310020C0F2002158
S31502000A10FFF784FF42F65F210020C0F20021FFF7B4
S31502000A207DFF42F6BA210020C0F20021FFF776FFD1
S31502000A3000202146FFF772FF42F69C143C25C0F2C5
S31502000A40002400202146FFF769FF013DF9D142F655
S31502000A509A110020C0F20021FFF760FF42F6FE2144
S31502000A600020C0F20021FFF759FF40F6E840C2F22B
S31502000A700020006800285CD040F6EC4442F6F509F6
S31502000A800026C2F200244FF064084FF0010AC0F2B9
S31502000A9000290BE040F6E8400434C2F2002008F1D7
S31502000AA064080AF1010A0068864242D244F6D3502B
S31502000AB0C1F26200AAFB000B36B142F69A1116F099
S31502000AC00F00C0F2002107D086B342F61C2116F0B1
S31502000AD00700C0F2002129D10020FFF71FFF42F2D2
S31502000AE0F6710020C0F20021FFF718FF4FEA9B20A3
S31502000AF04FF47A51484322684946451E0020FFF7C3
S31502000B000DFFB54206F10106C4D140F6E840324671
S31502000B10C2F2002003680020B8FBF3F1009142F60E
S31502000B207621C0F20021FFF7F9FEB3E7002ED6D1F7
S31502000B30DCE742F6DF210020C0F20021FFF7EEFEDD
S31502000B4042F644310020C0F20021FFF7E7FE42F6EA
S31502000B509A110020C0F20021FFF7E0FE42F69C1433
S31502000B603C25C0F2002400202146FFF7D7FE013DB6
S31502000B70F9D142F69A110020C0F2002101B0BDE877
S31502000B80000FBDE8F040FFF7C9BED4D4D4D4D4D404
S31502000B90F0B503AF2DE9000F81B02DED088B86B0BD
S31502000BA00D469FED8F8B71B10246042D4FF0000961
S31502000BB014D24FF0FF34002049464FF0000B0023B9
S31502000BC04FF000086CE04FF0FF344FF000084FF092
S31502000BD0000BB0EE480B4FF000097CE025F0030055
S31502000BE0049502900438012180EF500001EB900E2B
S31502000BF04FF0333C87FF5F2E4FF0013A144680EFE9
S31502000C005140002049464FF005094FF0000B4FF0C6
S31502000C1000080392B4EC047F002627FE4F0FFDEE78
S31502000C20103AADFF56A003F00102C3F3001552427B
S31502000C300AEF54A162F300066A4262F34106C3F365
S31502000C4000225242C3F3003362F382065A4262F32F
S31502000C50C30609EA5602F9FE2A8FB21A0CEA920371
S31502000C6022F0CC321A4426FF522602EB121289FED9
S31502000C70260F22F0F03202FB0AF226FF40060BEBA9
S31502000C80126B0FF039C84FF0FF344FF00009EAFE3D
S31502000C90824F049D029B039AAB42EAFE009F16D046
S31502000CA0A5EB030E02EB830252F8043BA34253EA7E
S31502000CB034844B4553EA8989C01841F10001002B5F
S31502000CC05BEA1B9BC3F3C04398440FF013C801F0C1
S31502000CD05BFD41EC100B02EE10BA002D01EE105A2C
S31502000CE042F60F01B8EE422BC0F200214FF000008F
S31502000CF0B8EE411B9FED3C3B22EE032B80EE010B2F
S31502000D0008FE00AB002D82EE010B02EE108AB8EE51
S31502000D10422B22EE032B08FE009B002D82EE010BD6
S31502000D2008FE008BFFF7FAFD42F6B6310020C0F24C
S31502000D3000212A46FFF7F2FD42F2DC710020C0F2E2
S31502000D40002122462346FFF7E9FD42F62D01002047
S31502000D50C0F200214A464B46FFF7E0FD53EC1A2B40
S31502000D6042F69E11C0F200210020FFF7D7FD42F69F
S31502000D70FB010020C0F200215A468DED009BFFF7D1
S31502000D80CDFD42F6AD110020C0F2002142468DEDA6
S31502000D90008BFFF7C3FDA9EB040442F6C931C0F28A
S31502000DA0002100202246FFF7B9FD42F6AB0142F6CA
S31502000DB05F00C0F20021C0F20020B4F57A7F50EA4B
S31502000DC0818242F638110020C0F2002106B0BDEC45
S31502000DD0088B01B0BDE8000FBDE8F040FFF79EBDED
S31502000DE00000000000000000000000000000594062
S31502000DF0F0B503AF4DF8048D007901283CD00328E5
S31502000E000BD0022873D14DF2EC00C2F20920016820
S31502000E10013101605DF8048BF0BD47F2FF0040F638
S31502000E20E844C0F20200C2F2002441F2F402411C7C
S31502000E30C2F20A2225688D42116801F10101116090
S31502000E4055D240F2FF31401B884250EA318640F6C5
S31502000E50EC400421C2F2002001EB86024DF2F401BD
S31502000E6000EB8500C2F2092101F07AFCA8190130D3
S31502000E7020605DF8048BF0BD47F2FF0040F6E848BB
S31502000E80C0F20200C2F200284DF2F002411CC2F288
S31502000E900922D8F800608E42116801F10105156039
S31502000EA018D240F2FF31801B884250EA318440F664
S31502000EB0EC400421C2F2002001EB84024DF2F4015F
S31502000EC000EB8600C2F2092101F04AFC301901301A
S31502000ED0C8F8000045F6294045F62841CCF28F2095
S31502000EE0C0F28F2168434FEAB000884202D95DF80A
S31502000EF0048BF0BD42F682010020C0F200215DF8AB
S31502000F00048BBDE8F040FFF709BDD4D4D4D4D4D4C1
S31502000F10B0B502AFFFF7C2F942F6AF010020C0F248
S31502000F200021FFF7FBFC41F2001042F66441C2F2D7
S31502000F300A20C0F2002100F0EBF828B142F6A32104
S31502000F400246C0F2002130E042F2C9710020C0F22E
S31502000F500021FFF7E3FC42F2F8710020C0F2002103
S31502000F60FFF7DCFC4EF66020012101F092F941F216
S31502000F7000144DF6F001C2F20A24CFF6FF7142F2D6
S31502000F801072204600F031FA4DF2F4014FF480421D
S31502000F90C2F209214FF48063204600F067F948B196
S31502000FA042F647010246C0F200210020BDE8B040E9
S31502000FB0FFF7B4BC42F6171144F24024C0F20021F6
S31502000FC00020C0F20F04FFF7A9FC42F665310020AB
S31502000FD0C0F20021FFF7A2FC0A20214601F059F9CE
S31502000FE042F6DE010020C0F20021FFF797FC41F233
S31502000FF00015C2F20A25284600F0B0F9284600F08C
S31502001000A1FA42F64C110020C0F20021FFF786FC3D
S315020010104DF2F00542F66E11C2F20925C0F2002128
S3150200102000202A68FFF77AFC9FED310B42F67031F9
S31502001030C0F20021002053EC102BFFF76FFC95ED58
S31502001040000A9FED2D1AB8EE400A42F68411C0F24C
S315020010500021002020EE010A9FED281A80EE010AE7
S31502001060B7EEC00A53EC102BFFF758FC41F2F4001E
S3150200107042F60621C2F20A20C0F2002102680020CE
S31502001080FFF74CFC40F6E8459FED1D1AC2F200251B
S3150200109042F61F31C0F20021002095ED000AB8EE9B
S315020010A0400A80EE010AB7EEC00A53EC102BFFF796
S315020010B035FC296829B140F6EC40C2F20020FFF760
S315020010C067FD42F6CD110020C0F20021FFF726FC93
S315020010D00120214601F0DDF8FFF740FC42F66401EB
S315020010E00020C0F20021BDE8B040FFF717BC00BFE8
S315020010F000000000008863400000C84200401C4314
S3150200110000007A4680B56F46FFF719FC002080BDC5
S31502001110024600284FF0010018BF002900D170478F
S31502001120F0B503AF2DE9000F81B04D68022D01D84D
S31502001130086838B140F27A5001B0BDE8000FBDE848
S31502001140F040704744F24D491068C0F250094845D4
S3150200115001D10E20F0E701208E69EFF3108B80F3A8
S31502001160108843F208009246C4F2200046F20018A4
S315020011700C4601210268C4F2250822F08072026040
S3150200118000681E2001F085F88BF31088A446317E94
S31502001190227A337D747D09014FF00B0E41EA02710A
S315020011A0B27D41EA0361F37D41EA04419CF80940BC
S315020011B041EA023208EB052142EA032222430A628D
S315020011C0727EB37E34781B0443EA026206F124037C
S315020011D022444A62B28B8A62F28BCA62328C0A63F8
S315020011E0728C4A6301F1380233F8024B42F8044B1F
S315020011F00FF007C0728F4FF0140E4A6601F16802B3
S3150200120006F13C03544633F8020B42F8040B0FF086
S3150200121007C096F864002B02C1F8C000B6F8660053
S31502001220B6F8682042EA0040C1F8C400F06EC1F880
S31502001230C800306F02220436C1F8CC000120C0F685
S31502001240070248F803008A614DCE10431843304323
S315020012500861C4E901C1DCF810002062DCF8140060
S31502001260A06200206062C4F8009065E700284FF093
S31502001270010C18BF002901D160467047F0B503AFD3
S315020012804DF804BD44F24D450668C0F25005AE4223
S315020012900DD1002A4FF0010C18BF002B09D045686A
S315020012A0AE6936B18C070AD040F2EB3C01E04FF052
S315020012B0070C5DF804BBBDE8F0406046704796F83F
S315020012C064604FF0FF3404FA06F602F0030423EAE0
S315020012D00606264306D19408B4FBF3F65E43C6EB34
S315020012E0920212B14FF0170CE3E700F1140C866874
S315020012F00022C0E903148CE80E000121C6F8E010B2
S315020013001E210139D6F8E820FBD1044600F0B4F9D3
S3150200131084460028CDD195F92100224600285CBFDB
S31502001320F0685FEAC0300DD5F06840F00400F06066
S3150200133095F91F00002802D4297F00F0E8F94FF042
S31502001340000CB6E7F068224640F48030F06095F96A
S315020013502100A97F00F0DBF92246E5E748B344F213
S315020013604D420168C0F25002914224D1B0B502AF9B
S31502001370D0E901450146D5F8E00000284FF000000B
S3150200138008BFB0BDEA6822F00402EA60C5F8E000D0
S315020013904868C06818B181680068096A884794F984
S315020013A0210000285CBF28695FEA807005D500200D
S315020013B0B0BD0120704707207047E8684EF28013DF
S315020013C020F48030E86094F92100CEF20003012275
S315020013D000F01F01400902FA01F143F82010BFF3A1
S315020013E04F8FBFF36F8F0020B0BD002864D0F0B5D9
S315020013F003AF2DE9000B44F24D440368C0F25004DA
S31502001400A3425BD1D0E901C39CF92140002C5CBF09
S31502001410DC685FEAC43455D59E6946F002069E61D1
S31502001420C3F8B810C3F8BC20196941F0020119616A
S315020014309CF9201000293BD4D9684EF6185541F084
S315020014400201D9609CF920109CF81D30CEF20005ED
S3150200145001F00F021B01161F4EF20012CEF200021D
S31502001460002901EB020404F5407448BF7419237085
S3150200147041F28413C2F20A23012643F821004CF2F8
S315020014800030C4F2000050F8213023F4803340F8D3
S31502001490213050F82100480901F01F01BFF35F8F88
S315020014A002EB800306FA01F1C3F8801142F820101C
S315020014B00020BDE8000BF0BD012070470720BDE803
S315020014C0000BF0BDDC684EF2001944F48034DC6097
S315020014D09CF921E0CEF200099CF81E504EF61858EF
S315020014E00EF00F04CEF20008261F0EEB090404F5D7
S315020014F04074BEF1000F48BF06EB08042D012570AB
S3150200150041F284140EF01F06C2F20A2444F82E0099
S315020015104CF20034C4F2000454F82E5025F48035FF
S3150200152044F82E5054F82E404FEA5E140125BFF3BC
S315020015305F8F09EB840805FA06F6C8F8806149F858
S31502001540246069E7002800F0808044F24D42016879
S31502001550C0F2500291427AD1F0B503AF4DF8048D34
S31502001560D0E901564EF28018CEF20008D6F8E01005
S31502001570C1B1F16821F00401F1600021C6F8E01062
S315020015804168C96831B18A68096804460846126A20
S315020015909047204695F9211000295CBF31695FEA20
S315020015A0817156D50121716040F2E7317269D20725
S315020015B003D00029A1F10101F8D14FF6FD72F168BD
S315020015C0CFF6FE7211400222F16000213161C0F6AF
S315020015D00702B261016095F91F0000280DD4C0B25E
S315020015E00122C0F3421100F01F0002FA00F048F88F
S315020015F02100BFF34F8FBFF36F8F95F920000028AC
S315020016000DD4C0B20122C0F3421100F01F0002FA4B
S3150200161000F048F82100BFF34F8FBFF36F8F95F9A3
S31502001620210000280DD4C0B20122C0F3421100F0FD
S315020016301F0002FA00F048F82100BFF34F8FBFF3F4
S315020016406F8F00205DF8048BF0BD012070470720E4
S315020016507047F168012321F48031F16095F9211078
S315020016604A0901F01F0103FA01F148F82210BFF3FB
S315020016704F8FBFF36F8F95E7F0B503AF4DF804BDFB
S315020016804468E568A5B3696800F1080EA2694FF6D9
S31502001690FF760968C0F6DF769EE80850E8334B60AD
S315020016A0C3688B600B683340012603F120430B604D
S315020016B092F8643006FA03F3CB81838B92F86420A6
S315020016C023FA02F28A81C1690CEB8E02436903EBAB
S315020016D081014161914201D3C1684161A868E16813
S315020016E00268D1E90001904730B15DF804BBF0BD54
S315020016F000205DF804BBF0BDA868E168C26808680E
S315020017009047002808BF00205DF804BBF0BDD0B5A5
S3150200171002AF4EF2001C4EF6145ECEF2000C090128
S3150200172000EB0C0400F00F0304F54074CEF2000E39
S31502001730002848BF03EB0E04217041F28411C2F265
S315020017400A21012341F820204CF20031C4F20001A3
S3150200175051F8202022F4803241F8202051F820103E
S31502001760410900F01F00BFF35F8F0CEB810203FA01
S3150200177000F0C2F880014CF82100D0BDB0B502AF2E
S3150200178082B0EFF303804FF0704101EB006041F24B
S3150200179084128115C2F20A2205165458A1680A69F2
S315020017A022F002020A61A16802228A61216AB1B1AB
S315020017B0606A20B1D0E90012CDE9001200E0684665
S315020017C002210171A16A01600021C180216A884754
S315020017D0606A00281CBFDDE90012C0E900124CF263
S315020017E00030C4F2000050F8251021F4803140F890
S315020017F0251050F82500A068016941F00201016137
S3150200180002B0B0BDF0B503AF4DF8048D82B0EFF370
S3150200181003804FF0704101EB006041F284114CF2FB
S3150200182000328015C2F20A21C4F200020C58815815
S3150200183021F4803181508058E268F2B1A168D4E97E
S315020018400430D1F8EC1069B102EB83030022A668DA
S31502001850D6F8E86040F8046B984205D2013291420C
S31502001860F5D103E0002101E0E068511CD4E906321B
S315020018701944C4E90501914203D202B05DF8048B12
S31502001880F0BDE8460126002514E0D0E90012CDE9B4
S3150200189000120671A16A0160C580216A8847606AE2
S315020018A000281CBFDDE90012C0E90012D4E90612C5
S315020018B09142E2D3206A891A0028A161F8D0606AAF
S315020018C00028E2D14046E4E7B0B502AF82B0EFF3BA
S315020018D003804FF0704101EB006041F284128115E2
S315020018E0C2F20A22002304165558C0F60703AA6854
S315020018F05169194091612A6AB2B1686A090C20B12C
S31502001900D0E90023CDE9002300E0684603220271F4
S31502001910AA6A0260C180296A8847686A00281CBFD1
S31502001920DDE90012C0E900124CF20030C4F20000F8
S3150200193050F8241021F4803140F8241050F8240085
S3150200194002B0B0BD80B56F4645F25422C5F24F02D1
S315020019500260084600F002F8002080BDF0B503AF31
S315020019604DF804BD044600F060F841F2801CEFF326
S315020019701081C2F20A2C012080F31088DCF80000E4
S3150200198038B940F614500022C4F2400002704022D8
S315020019900270DCF800000130CCF8000081F31088F8
S315020019A0208828B340F6000E0021C4F2400E07E05C
S315020019B00EEB8010013140F822302088814217D286
S315020019C0606800EBC10250F831309288D8034FEAC2
S315020019D01220D2B2ECD50EEB801555F8226026F411
S315020019E0803645F8226023F4803645F82260DFE728
S315020019F00120EFF3108180F31088DCF8000020B19B
S31502001A00DCF800000138CCF80000DCF8000038B938
S31502001A1040F614500022C4F2400002708022027086
S31502001A2081F310885DF804BBF0BDF0B503AF2DE974
S31502001A30000F81B004460088002861D04EF64C4B58
S31502001A400025C4F2010B03E020880135854257D2F6
S31502001A5043F2841942F240080026C0F20029C4F279
S31502001A6020080AE088F80000C820012100F011FCD5
S31502001A70013608F10208032EE6D0606839F8022B17
S31502001A8000EBC50189889142F2D150F835009BF8E6
S31502001A900010012200F0B85002FA06FAB0F1807F77
S31502001AA00AEA010015D158B9012000F09FFC9BF803
S31502001AB0000040EA0A008BF80000012000F06CFCEE
S31502001AC098F900000028D3D498F8000040F080006E
S31502001AD0C8E758B1012000F089FC9BF8000020EA13
S31502001AE00A008BF80000012000F056FC98F900006D
S31502001AF0B0F1FF3FBCDC98F8000000F07F00B1E7D0
S31502001B0001B0BDE8000FF0BDD0B502AF82B0EFF371
S31502001B1003804FF0704101EB00604CF200318015FA
S31502001B20C4F20001425822F48032425041F2841239
S31502001B304158C2F20A2214586069E168019001A86C
S31502001B408847A068C16800291CBF0121017702B03D
S31502001B50D0BDD4D44EF22401C4F20101887809889A
S31502001B6001F00F02A2F1080103293BD8DFE801F0D8
S31502001B70022C101E40F20041C2F2002151F8200050
S31502001B804AF6AB21CAF6AA21A0FB0101480830E0B9
S31502001B9040F20041C2F2002151F820004AF6AB2180
S31502001BA0CAF6AA21A0FB0101C80822E040F20041C0
S31502001BB0C2F2002151F820004AF6AB21CAF6AA2148
S31502001BC0A0FB0101080914E040F20041C2F2002123
S31502001BD051F820004AF6AB21CAF6AA21A0FB010160
S31502001BE0880806E040F20041C2F2002151F82000C6
S31502001BF0D04041F29C11C2F20A2108607047D4D447
S31502001C00F0B503AF2DE9000F81B00FF2E4504EF2AA
S31502001C10FA3840F2004BC4F2010890ED001FC2F2FE
S31502001C20002B0FF2DC504AF203514EF25505CFF665
S31502001C30FF71A8F800108BED001F0BF12003C4F210
S31502001C40010590ED001F48F2004040F60001C1F286
S31502001C50D77043F600028BED041FC2F6AF71C1F6D0
S31502001C609C4207C315F82F0C35F8311C01F00F0200
S31502001C70A2F1080103292BD8DFE801F002200C1695
S31502001C804AF6AB215BF82000CAF6AA21A0FB0101A5
S31502001C90480820E04AF6AB215BF82000CAF6AA21E2
S31502001CA0A0FB0101C80816E04AF6AB215BF820004A
S31502001CB0CAF6AA21A0FB010108090CE04AF6AB21EB
S31502001CC05BF82000CAF6AA21A0FB0101880802E0FF
S31502001CD05BF82000D04041F29C1A4EF60046C2F252
S31502001CE00A2AC4F201060A214EF60144CAF8000085
S31502001CF04FF65060CFF6FF704AF20359C4F2010460
S31502001D003154092085F84D00307818B920788007BB
S31502001D1000F06282307840B901203070C82001217B
S31502001D2000F0B7FA30780128FCD10020207030701C
S31502001D30002005F81F0C05F8230C15F8190C0007EE
S31502001D40FBD542F60230C0F20100C5F8730040F23C
S31502001D50234025F8070C002005F80B0C4FF602105D
S31502001D60C5F8570040F2514025F8090C15F8410C08
S31502001D7000F0F800013005F8410C15F8410CC006D8
S31502001D80FBD4002005F82B0C15F8190C8006FBD5A0
S31502001D904CF200060020C4F2130630703078307818
S31502001DA030787068FA2806D0FA20C1F600607060B2
S31502001DB07168FA29FBD1B0687D2806D07D20CEF263
S31502001DC00010B060B1687D29FBD143F23240C3F204
S31502001DD0232045F8350C42F2201025F8310C052057
S31502001DE005F82F0C15F82F0C35F8311C01F00F02EF
S31502001DF0A2F1080103292BD8DFE801F002200C1614
S31502001E004AF6AB215BF82000CAF6AA21A0FB010123
S31502001E10480820E04AF6AB215BF82000CAF6AA2160
S31502001E20A0FB0101C80816E04AF6AB215BF82000C8
S31502001E30CAF6AA21A0FB010108090CE04AF6AB2169
S31502001E405BF82000CAF6AA21A0FB0101880802E07D
S31502001E505BF82000D040CAF800001E2001210124B0
S31502001E6000F017FA70686FF39F20652828BF347058
S31502001E7015F82F0C35F8311C01F00F02A2F10801FA
S31502001E8003292BD8DFE801F002200C164AF6AB2113
S31502001E905BF82000CAF6AA21A0FB0101480820E04F
S31502001EA04AF6AB215BF82000CAF6AA21A0FB010183
S31502001EB0C80816E04AF6AB215BF82000CAF6AA214A
S31502001EC0A0FB010108090CE04AF6AB215BF82000F1
S31502001ED0CAF6AA21A0FB0101880802E05BF82000ED
S31502001EE0D040CAF8000042F20000C4F20000A9F194
S31502001EF0020101800121BFF35F8F01724FF4254178
S31502001F00BFF35F8F018095F8850040F0400085F8A9
S31502001F10850095F98500B0F1FF3FFADC032085F8CC
S31502001F207F00C92085F8850095F8850000F0BF007E
S31502001F3085F8850095F985000028FBD4012005F86F
S31502001F40250C05F8030C05F8020C002005F8170C01
S31502001F50802005F8170CE87F40F04000E87795F9F5
S31502001F601F00B0F1FF3FFADC0720E8754A20E87748
S31502001F700A20E87795F91F000028FBD4B8F800007C
S31502001F80A8F8009095F8201041F0400185F820103D
S31502001F9095F92010B1F1FF3FFADC0021297647219D
S31502001FA085F82010072185F8201095F920100029C0
S31502001FB0FBD4A8F8000095F8210040F0400085F80F
S31502001FC0210095F92100B0F1FF3FFADC0320687683
S31502001FD0CA2085F8210095F8210000F0BF0085F897
S31502001FE0210095F921000028FBD4287840F0400012
S31502001FF0287095F90000B0F1FF3FFADC022005F8DF
S31502002000010CCA202870287800F0BF00287095F9C4
S3150200201000000028FBD4A87840F04000A87095F98B
S315020020200200B0F1FF3FFADC00206870C720A870FA
S31502002030A87800F0BF00A87095F902000028FBD42A
S31502002040287A40F04000287295F90800B0F1FF3F67
S31502002050FADC0120E871C6202872287A00F0BF0057
S31502002060287295F908000028FBD495F8230040F061
S31502002070400085F8230095F92300B0F1FF3FFADC12
S315020020800220E876C92085F8230095F8230000F09F
S31502002090BF0085F8230095F923000028FBD4A87A0F
S315020020A040F04000A87295F90A00B0F1FF3FFADC51
S315020020B001206872CA20A872A87A00F0BF00A8722E
S315020020C095F90A000028FBD495F8220040F040005A
S315020020D085F8220095F92200B0F1FF3FFADC0420D0
S315020020E0A876CA2085F8220095F8220000F0BF00E3
S315020020F085F8220095F922000028FBD4A87940F041
S315020021004000A87195F90600B0F1FF3FFADC022003
S315020021106871CA20A871A87900F0BF00A87195F964
S3150200212006000028FBD495F8860040F0400085F8AA
S31502002130860095F98600B0F1FF3FFADC022085F8A9
S315020021408000C52085F8860095F8860000F0BF005D
S3150200215085F8860095F986000028FBD495F8870055
S3150200216040F0400085F8870095F98700B0F1FF3FFF
S31502002170FADC012085F88100C52085F8870095F8EC
S31502002180870000F0BF0085F8870095F987000028D0
S31502002190FBD495F8890040F0400085F8890095F94E
S315020021A08900B0F1FF3FFADC092085F88300C920D7
S315020021B085F8890095F8890000F0BF0085F8890046
S315020021C095F989000028FBD44FF42540A8F80000B1
S315020021D001B0BDE8000FF0BD4FF47A7000F018F8B8
S315020021E0A6E500BF00BF00BF00BF00BF00BF00BF23
S315020021F0006CDC0200127A000080000000366E01DC
S315020022000080000000CA9A3B0046C3235543DE13F2
S315020022107047B0B502AF42F22404C820C4F22004CB
S3150200222001210025257100F034F82570207808B1C7
S315020022302FF005C0207840F0020020702078800739
S31502002240FCD4002004F8020C14F8020C08B12FF09A
S3150200225005C84FF0030E002004F11C0111F81020EE
S3150200226002F07F0201F8102011F91020002AFBD497
S3150200227001300FF00DC8012000F0B8F84EF64C41BF
S315020022800120C4F2010100220A70BDE8B04000F04C
S3150200229083B841F29C1241F20023C2F20A22C0F232
S315020022A07A03484312689A420FD344F23F21C0F29E
S315020022B00F0111444DF68362C4F21B32A1FB0212D6
S315020022C0910CA0FB0101C9B11DE04CF60021C3F639
S315020022D09A31B1FBF2F148F63812C0F2410290424D
S315020022E005D24FF47A725043B0FBF1F006E0B0FB30
S315020022F0F1F0904207D24FF47A714843002808BFA2
S31502002300704700F005B84FF0FF3000F001B8D4D4A2
S3150200231001380028FCD17047F0B503AF4DF8048DA3
S315020023204CF2201841F22C14C4F200080026C2F224
S315020023300A2458F8200CD8F8001001EA000503E038
S3150200234001360434152E09D025FA06F0C007F7D057
S3150200235021680029F4D0F0B28847F1E748F8105C0A
S31502002360D8F800002842FBD15DF8048BF0BD80B599
S315020023706F464FF0040E4CF2003043F27C11C4F269
S315020023800000C0F2002131F8022B002A18BF0260B9
S3150200239004300FF009C080BD0122EFF3108182F3F1
S315020023A0108841F29412C2F20A2232F8103023B196
S315020023B032F81030013B22F8103032F8102012B1F8
S315020023C081F3108870474EF2FA3243F2D83CC4F2D7
S315020023D00102C0F2002C13883CF8100043F4254396
S315020023E023EA0000108081F310887047D0B502AF4F
S315020023F00122EFF3108182F3108841F29412C2F2A5
S315020024000A2232F8103083B94EF2FA3E43F2D83C31
S31502002410C4F2010EC0F2002CBEF800403CF81030A7
S31502002420234343F42543AEF8003032F8103001332B
S3150200243022F8103081F31088D0BD80B56F4600F0C7
S3150200244007F8FEF75FFEFEE700BE7047D4D4D4D489
S31502002450F0B503AF2DE900074EF6085840F2012009
S31502002460CEF20008C0F20E004EF20004C8F80C00CC
S31502002470CEF20104BFF34F8FBFF36F8F58F8080CEB
S31502002480C0F3035110F00F0F5FEA0F9001295FEAC4
S315020024901081206810D879B940F0040020604EF20D
S315020024A00800BFF34F8FCEF20000BFF36F8F0168B3
S315020024B041F48031016002E020F004002060BFF3A5
S315020024C04F8FBFF36F8F4FF4700040F20001C8F8D0
S315020024D080000020C0F20021C8F80010FEF731FA91
S315020024E0FFF78EFB0120FEF72CFA40F20000C2F243
S315020024F0002080F30A882068800725D5D8F80000D6
S31502002500B0F1007F20D120694FF40071C0F3C300FF
S31502002510626901FA00F3C2F3C30081400020DA08BF
S315020025200646CB08014642F007C800BF00BF00BFFF
S31502002530E6E802010FF005C04FF0005243F005C075
S31502002540E2E802010FF005C043F2AC19C0F200291D
S31502002550D9F800508DB1D9F804002E46041D03E0C7
S31502002560013E04F10C0408D060790028F8D154E940
S315020025700101091A00F0F0F8F2E7D9F808A0BAF159
S31502002580000F13D0D9F80C00564600F1080403E0F8
S31502002590013E04F1100409D060790028F8D154E90B
S315020025A002022168121A00F0DBF8F1E7FFF7D2FA0D
S315020025B0FFF72FFE0320FFF719FF4FF00E0E40F62E
S315020025C03050C4F24000002120F8041B0FF005C071
S315020025D04EF210140320C4F20104FFF7DDFE0320BD
S315020025E0FFF704FF44F204000021C4F22000016058
S315020025F041608160C1600320FFF7CEFED4F8C802B5
S3150200260010B1D4F8C80211E0207878B10120FFF7A2
S31502002610EDFE207800F0C0008028FAD1002020705C
S3150200262020783F28FCD80120FFF7B6FE0120FFF7ED
S31502002630DDFE207900F0C0008028FAD1002020714A
S3150200264020793F28FCD80120FFF7A6FE0220FEF7DC
S3150200265078F99DB1D9F804004FF48076041D03E0A1
S31502002660013D04F10C0409D06079B6EB002FF7D1D5
S3150200267054E90101091A00F06FF8F1E7BAF1000F07
S3150200268016D0D9F80C004FF4807500F1080404E066
S31502002690BAF1010A04F110040AD06079B5EB002FF1
S315020026A0F6D154E902022168121A00F059F8EFE74E
S315020026B041F2A414C2F20A24204600F02DF8204664
S315020026C000F040F8BFF34F8F002043F22E41BFF3D4
S315020026D06F8FC8F8480243F22E40C0F20020C0F2C3
S315020026E00021BFF34F8F081ABFF36F8F8410012C9E
S315020026F008DB43F22E45C0F2002555F8040B80474D
S31502002700013CFAD1FFF733FE0020BDE80007BDE821
S31502002710F04000F000B87047D0B502AF0549044654
S31502002720054A00F01DF805480549204400F014F852
S31502002730D0BD00BF680000020000000000000000DB
S31502002740000000000249401A02490860704700BFB3
S3150200275008000000A0110A220A46002100F00AB869
S31502002760D0B502AF00239A4203D0CC5CC4540133E5
S31502002770F9E7D0BD00239A4208BF7047C15401331E
S31502002780F9E7D4D4D4D4D4D400229FED090BC4F2F1
S31502002790305242EC111B0021C4F2303131EE000BF3
S315020027A041EC110B30EE010B51EC100B704700BFE0
S315020027B000001000000030C5000000000000545464
S315020027C052205245474745530050444D204F7065AD
S315020027D06E3A20535543434553530A004D696E20C2
S315020027E076616C75653A2030782530386C58202829
S315020027F0256C64290A00200046696C746572207390
S31502002800746162696C697A696E672E2E2E0A000AF5
S315020028103D3D3D20415544494F20444154412041CC
S315020028204E414C59534953203D3D3D0A004D617876
S315020028302076616C75653A2030782530386C5820E0
S3150200284028256C64290A0050444D20537461727421
S31502002850204641494C45443A20307825580A0047DB
S315020028606F6F64000A3D3D3D20414C4C205441535C
S315020028704B5320434F4D504C45544544203D3D3D1E
S315020028800A002E005265636F7264696E6720647572
S31502002890726174696F6E3A20256C752E2530336C21
S315020028A075207365636F6E64730A004C6F77000A56
S315020028B03D3D3D2050444D204F5054494D495A45C7
S315020028C044205245434F5244494E472053544152A5
S315020028D054203D3D3D0A00284E554C4C29000A52D3
S315020028E065636F7264696E6720636F6D706C657481
S315020028F06564210A002530386C58005A65726F20CB
S3150200290073616D706C65733A20256C752028252ECF
S3150200291031662525290A005265636F7264696E67FE
S3150200292020737461727465642120283130207365C6
S31502002930636F6E6473290A005369676E616C207156
S3150200294075616C6974793A2025730A000A3D3D3D2A
S3150200295020504F53542D5245434F5244494E47201F
S31502002960414E414C59534953203D3D3D0A00546F57
S3150200297074616C2063616C6C6261636B733A2025CF
S315020029806C750A00537563636573732072617465AF
S315020029903A20252E316625250A000A003D00417699
S315020029A065726167653A20252E31660A004E6567B3
S315020029B061746976652073616D706C65733A202562
S315020029C06C752028252E31662525290A000A53749E
S315020029D0617274696E672064617461206F757470C8
S315020029E0757420666F7220507974686F6E207072EB
S315020029F06F63657373696E672E2E2E0A00546572B5
S31502002A006D696E616C004572726F7273206F6363DB
S31502002A1075727265643A20256C750A002020003DA5
S31502002A203D3D20434F4D504C455445204155444968
S31502002A304F20444154412044554D50203D3D3D0ACE
S31502002A4000546F74616C20636F6C6C6563746564AB
S31502002A502073616D706C65733A20256C750A00539C
S31502002A60616D706C6520726174653A203136303062
S31502002A703020487A0A000A2E2E2E2050726F677274
S31502002A806573733A20256C75202F20256C7520738B
S31502002A90616D706C657320282564252529202E2EEC
S31502002AA02E0A0050444D204F70656E204641494C17
S31502002AB045443A20307825580A00426974206465F4
S31502002AC07074683A2032302D6269742050444D2069
S31502002AD02D3E2031362D6269742050434D0A000A7C
S31502002AE02A2A2A20505552452044415441204F5506
S31502002AF05450555420454E44202A2A2A0A000A2AAE
S31502002B002A2A20505552452044415441204F5554BB
S31502002B10505554205354415254202A2A2A0A00411D
S31502002B20637475616C207265636F7264696E672087
S31502002B3074696D653A20252E3266207365636F6E61
S31502002B4064730A000A3D3D3D20454E4420434F4DE5
S31502002B50504C45544520444154412044554D502043
S31502002B603D3D3D0A0050726F67726573733A2000ED
S31502002B7045787065637465642063616C6C62616339
S31502002B806B733A20252E31660A0044617461206611
S31502002B906F726D61743A2033322D626974206865F2
S31502002BA078202832302D6269742065666665637402
S31502002BB0697665290A0053616D706C6520636F75CD
S31502002BC06E743A20256C750A0044796E616D6963EC
S31502002BD02072616E67653A20256C750A00303132C3
S31502002BE033343536373839414243444546D4D4D452
S31502002BF000000000000000000000000000000000CD
S31502002C0000000008000000000401F900613FC13E17
S31502002C10004000C0E81F39003C00561EDC01E106F8
S31502002C20DC01561E3C003900E81F0004F81F0A00AA
S31502002C30F01F1800DC1F3400B31F76002E1F890216
S31502002C4089022E1F7600B31F3400DC1F1800F01F06
S31502002C500A00F81F0400000000000000C0E00000A7
S31502002C60401F0000000000000200000000000000FB
S31502002C7000000000F10D000200000000F02B00022F
S31502002C8002010301000200000040000000000000F3
S31502002C90004000000600000000400000080000009E
S31502002CA00040000009000000004000000C00000087
S31502002CB0450000000D000000000C011C0001000090
S31502002CC0000C011C01010000000C011C02010000A5
S31502002CD0000C011C03010000000C011C0401000091
S31502002CE0000C011C05010000000C011C060100007D
S31502002CF00040000007010000450400000901000031
S31502002D00104000000B010000000C010B0C0100003A
S31502002D10000C010B0D010000000C010B0E0100005E
S31502002D20000C010B0F010000004000000002000031
S31502002D30000C011806020000000C0119070200002F
S31502002D40000C010008020000000C0100090200004C
S31502002D50000C01000A020000000C01000B02000038
S31502002D60000C010B00030000000C010B0103000024
S31502002D70000C010B02030000040C00000303000018
S31502002D80000C011804030000000C011805030000E2
S31502002D90000C011806030000000C011807030000CE
S31502002DA0000C011809030000000C01180A030000B8
S31502002DB0400C010700040000400C0107010400005A
S31502002DC000000112020400000000011203040000C8
S31502002DD000000112040400000004011205040000B0
S31502002DE00004011206040000000401130704000097
S31502002DF000040114080400000004011F0B04000073
S31502002E00000401180E040000000401180F0400005B
S31502002E100000011300050000000C0103010500007B
S31502002E200004011B02050000000C010B0305000053
S31502002E30000C010B04050000000C010B0505000047
S31502002E40000C010B06050000000C010B0705000033
S31502002E50000C010B08050000000C010B090500001F
S31502002E60000C010B0A050000400401070B050000D7
S31502002E70400401070C050000000C01190D050000B5
S31502002E80040400000E050000000C01190F050000E5
S31502002E90040C000000060000040400000606000000
S31502002EA0000C010B07060000000C010B08060000CF
S31502002EB0000C010B09060000000C010B0A060000BB
S31502002EC0000C010B0B060000000C010B0C060000A7
S31502002ED0000C010B0D060000000C010B0E06000093
S31502002EE0000C010B0F060000000C01190707000079
S31502002EF0040400000807000004040000090700009B
S31502002F00000C01190A070000000C01190B0700004A
S31502002F10000C01190C070000000C01190D07000036
S31502002F20000C01190E070000000C01190F07000022
S31502002F30000C011C00080000000C011C0108000026
S31502002F40000C011C02080000000C011C0308000012
S31502002F50000C011C04080000000C01190508000001
S31502002F60000C011906080000000C011907080000F0
S31502002F70000C011C080800000000011B0B080000E1
S31502002F800004011B0C080000000C010B0D080000D8
S31502002F90000C01130E080000000C01130F080000BC
S31502002FA0000C011902090000000C011903090000B6
S31502002FB0000C011904090000000C011805090000A3
S31502002FC0000C011806090000000C01180709000090
S31502002FD0000C011808090000000C0118090900007C
S31502002FE0000C01190A090000000C01190B09000066
S31502002FF0000C01190C090000000C01190D09000052
S31502003000000C01190E090000000C01190F0900003D
S31502003010000C010B000A0000000C010B010A000063
S31502003020000C010B020A0000000C010B030A00004F
S31502003030000C010B040A0000000C010B050A00003B
S31502003040000C010B060A0000040C0000070A00002F
S31502003050000C010B080A0000000C010B090A000013
S31502003060000C010B0A0A0000000C010B0B0A0000FF
S31502003070000C010B0C0A0000000C010B0D0A0000EB
S31502003080000C010B0E0A0000000C010B0F0A0000D7
S31502003090000C0119000B0000000C0119010B0000C5
S315020030A0000C0119020B0000000C0119030B0000B1
S315020030B0000C0119040B0000000C0119050B00009D
S315020030C0000C0119060B0000000C0119070B000089
S315020030D0000C010B000C0000000C010B010C00009F
S315020030E0000C010B020C0000000C010B030C00008B
S315020030F0000C010B040C0000000C010B050C000077
S31502003100000C010B060C0000000C010B070C000062
S31502003110000C010B080C0000000C010B090C00004E
S31502003120000C010B0A0C0000000C010B0B0C00003A
S31502003130000C010B0C0C0000000C010B0D0C000026
S31502003140000C010B0E0C0000000C010B0F0C000012
S31502003150000C010B000D0000000C0104020D000022
S31502003160000C0104030D000000040114070D000009
S315020031709D000000882C000200000000C200C10071
S31502003180C5004000020403040404D4D4000000680D
S31502003190000000680000008000000080000000704F
S315020031A00000007000000022000000220B00000058
S315020031B0C431000219000000483200020400000077
S315020031C08C31000200000068000000680001000D5A
S315020031D000000068000000680001000D0000008089
S315020031E0000000800001000800000080000000804E
S315020031F00001000800000070000000700001000AD3
S3150200320000000070000000700001000A00000000CB
S315020032100000000001000005000000200000002060
S31502003220010000040000002200000022000000034A
S3150200323030040022A4110A2200000003A4110A226B
S31502003240A4110A22000000030000006800000068C2
S31502003250000000900001090D0000006800000068EF
S315020032600000007800010B0D0000006800000068F5
S31502003270000000270001020D00000068000000683F
S31502003280680000020001010D0000008000000080BD
S315020032900000009000010908000000800000008084
S315020032A00000007800010B0800000080000000808A
S315020032B000000027000102080000008000000080D4
S315020032C068000002000101080000007000000070A2
S315020032D0000000900001090A000000700000007062
S315020032E00000007800010B0A000000700000007068
S315020032F0000000270001020A0000007000000070B2
S31502003300680000020001010A00000000000000003F
S315020033100000009001010905000000000000000005
S315020033200000007801010B0500000000000000000B
S315020033300000002701000205000000000000000056
S3150200334068000002010001050000002000000020C4
S315020033500000009001010904000000200000002086
S315020033600000007801010B0400000020000000208C
S3150200337000000027010002040000002000000020D7
S315020033806800000201000104000000220000002281
S315020033900000009000010903000000220000002244
S315020033A00000007800010B0300000022000000224A
S315020033B00000002700000203000000220000002295
S315020033C06800000200000103A4110A22A4110A22C5
S315020033D0680000020000010301000200080010005C
S315020033E000000006362E302E30004275696C7420BD
S315020033F0776974682052656E6573617320416476DD
S31502003400616E63656420466C657869626C652053FB
S315020034106F667477617265205061636B61676520C0
S3130200342076657273696F6E20362E302E30007E
S30902C9F040FFFFFFFFFF
S30902C9F044E9FFFFFF11
S30902C9F0C0FFFFFFFD81
S30902C9F0C4FFFFFFBFBB
S30902C9F120000000001A
S30902C9F1240000000016
S7050200243B99
